{
  "contractName": "FlightSuretyData",
  "abi": [
    {
      "inputs": [
        {
          "internalType": "address",
          "name": "_appContractAddress",
          "type": "address"
        },
        {
          "internalType": "address",
          "name": "_oracleContractAddress",
          "type": "address"
        }
      ],
      "stateMutability": "nonpayable",
      "type": "constructor"
    },
    {
      "inputs": [],
      "name": "destructContract",
      "outputs": [],
      "stateMutability": "nonpayable",
      "type": "function"
    },
    {
      "inputs": [],
      "name": "isOwner",
      "outputs": [
        {
          "internalType": "bool",
          "name": "_isOwner",
          "type": "bool"
        }
      ],
      "stateMutability": "view",
      "type": "function",
      "constant": true
    },
    {
      "inputs": [
        {
          "internalType": "address",
          "name": "_newOwner",
          "type": "address"
        }
      ],
      "name": "transferOwnership",
      "outputs": [],
      "stateMutability": "nonpayable",
      "type": "function"
    },
    {
      "inputs": [
        {
          "internalType": "address",
          "name": "_caller",
          "type": "address"
        }
      ],
      "name": "authorizeCaller",
      "outputs": [],
      "stateMutability": "nonpayable",
      "type": "function"
    },
    {
      "inputs": [
        {
          "internalType": "address",
          "name": "_caller",
          "type": "address"
        }
      ],
      "name": "unauthorizeCaller",
      "outputs": [],
      "stateMutability": "nonpayable",
      "type": "function"
    },
    {
      "inputs": [
        {
          "internalType": "address",
          "name": "_caller",
          "type": "address"
        },
        {
          "internalType": "string",
          "name": "_flightRef",
          "type": "string"
        },
        {
          "internalType": "uint64",
          "name": "_estimatedDeparture",
          "type": "uint64"
        },
        {
          "internalType": "uint64",
          "name": "_estimatedArrival",
          "type": "uint64"
        },
        {
          "internalType": "uint256",
          "name": "_rate",
          "type": "uint256"
        }
      ],
      "name": "registerFlight",
      "outputs": [],
      "stateMutability": "nonpayable",
      "type": "function"
    },
    {
      "inputs": [
        {
          "internalType": "uint256",
          "name": "_flightID",
          "type": "uint256"
        },
        {
          "internalType": "uint64",
          "name": "_realDeparture",
          "type": "uint64"
        },
        {
          "internalType": "uint64",
          "name": "_realArrival",
          "type": "uint64"
        },
        {
          "internalType": "bool",
          "name": "_isLate",
          "type": "bool"
        }
      ],
      "name": "updateFlight",
      "outputs": [],
      "stateMutability": "nonpayable",
      "type": "function"
    },
    {
      "inputs": [],
      "name": "getCurrentFlightID",
      "outputs": [
        {
          "internalType": "uint256",
          "name": "",
          "type": "uint256"
        }
      ],
      "stateMutability": "view",
      "type": "function",
      "constant": true
    },
    {
      "inputs": [
        {
          "internalType": "uint256",
          "name": "_flightID",
          "type": "uint256"
        }
      ],
      "name": "getFlight",
      "outputs": [
        {
          "internalType": "string",
          "name": "flightRef",
          "type": "string"
        },
        {
          "internalType": "uint64",
          "name": "estimatedDeparture",
          "type": "uint64"
        },
        {
          "internalType": "uint64",
          "name": "estimatedArrival",
          "type": "uint64"
        },
        {
          "internalType": "uint64",
          "name": "realDeparture",
          "type": "uint64"
        },
        {
          "internalType": "uint64",
          "name": "realArrival",
          "type": "uint64"
        },
        {
          "internalType": "bool",
          "name": "isLate",
          "type": "bool"
        },
        {
          "internalType": "address",
          "name": "insuranceProvider",
          "type": "address"
        },
        {
          "internalType": "uint256",
          "name": "insuredValue",
          "type": "uint256"
        },
        {
          "internalType": "uint256",
          "name": "rate",
          "type": "uint256"
        }
      ],
      "stateMutability": "view",
      "type": "function",
      "constant": true
    },
    {
      "inputs": [
        {
          "internalType": "address",
          "name": "_caller",
          "type": "address"
        },
        {
          "internalType": "uint256",
          "name": "_flightID",
          "type": "uint256"
        },
        {
          "internalType": "uint256",
          "name": "_insuredValue",
          "type": "uint256"
        }
      ],
      "name": "insure",
      "outputs": [],
      "stateMutability": "nonpayable",
      "type": "function"
    },
    {
      "inputs": [
        {
          "internalType": "uint256",
          "name": "_insuranceID",
          "type": "uint256"
        }
      ],
      "name": "setInsuranceToClaimed",
      "outputs": [],
      "stateMutability": "nonpayable",
      "type": "function"
    },
    {
      "inputs": [
        {
          "internalType": "uint256",
          "name": "_totalInsuredValue",
          "type": "uint256"
        }
      ],
      "name": "setTotalInsuredValue",
      "outputs": [],
      "stateMutability": "nonpayable",
      "type": "function"
    },
    {
      "inputs": [],
      "name": "getCurrentInsuranceID",
      "outputs": [
        {
          "internalType": "uint256",
          "name": "",
          "type": "uint256"
        }
      ],
      "stateMutability": "view",
      "type": "function",
      "constant": true
    },
    {
      "inputs": [
        {
          "internalType": "uint256",
          "name": "_insuranceID",
          "type": "uint256"
        }
      ],
      "name": "getInsurance",
      "outputs": [
        {
          "internalType": "uint256",
          "name": "flightID",
          "type": "uint256"
        },
        {
          "internalType": "uint256",
          "name": "insuredValue",
          "type": "uint256"
        },
        {
          "internalType": "address",
          "name": "owner",
          "type": "address"
        },
        {
          "internalType": "bool",
          "name": "claimed",
          "type": "bool"
        }
      ],
      "stateMutability": "view",
      "type": "function",
      "constant": true
    },
    {
      "inputs": [],
      "name": "getTotalInsuredValue",
      "outputs": [
        {
          "internalType": "uint256",
          "name": "",
          "type": "uint256"
        }
      ],
      "stateMutability": "view",
      "type": "function",
      "constant": true
    }
  ],
  "bytecode": "0x608060405234801561001057600080fd5b506040516112ac3803806112ac83398101604081905261002f9161009b565b600080546001600160a01b031916331781556001600160a01b039283168152600160208190526040808320805460ff199081168417909155939094168252929020805490911690911790556100cd565b80516001600160a01b038116811461009657600080fd5b919050565b600080604083850312156100ad578182fd5b6100b68361007f565b91506100c46020840161007f565b90509250929050565b6111d0806100dc6000396000f3fe608060405234801561001057600080fd5b50600436106100f55760003560e01c806351457a79116100975780639499e018116100665780639499e018146101f4578063d48b06b8146101fc578063ed7f24bc14610204578063f2fde38b14610217576100f5565b806351457a79146101a15780637cae395c146101b457806385fae602146101bc5780638f32d59b146101df576100f5565b80632e523c0a116100d35780632e523c0a14610135578063390fc413146101535780633a4396cb146101665780634ac8c5ae1461018e576100f5565b80630b337715146100fa57806326b517461461010f5780632c388d5d14610122575b600080fd5b61010d610108366004610ee6565b61022a565b005b61010d61011d366004610ee6565b610267565b61010d610130366004610dec565b6102ba565b61013d61030a565b60405161014a91906110e7565b60405180910390f35b61010d610161366004610eb4565b610340565b610179610174366004610ee6565b61043e565b60405161014a99989796959493929190610f7b565b61010d61019c366004610dec565b610693565b61010d6101af366004610e0d565b6106e0565b61013d6108bb565b6101cf6101ca366004610ee6565b6108f1565b60405161014a94939291906110f0565b6101e7610985565b60405161014a9190610f70565b61010d610996565b61013d6109ce565b61010d610212366004610efe565b610a04565b61010d610225366004610dec565b610c8c565b3360009081526001602052604090205460ff166102625760405162461bcd60e51b815260040161025990611082565b60405180910390fd5b600655565b3360009081526001602052604090205460ff166102965760405162461bcd60e51b815260040161025990611082565b6000908152600560205260409020600201805460ff60a01b1916600160a01b179055565b6000546001600160a01b03163314806102e257503360009081526001602052604090205460ff165b6102fe5760405162461bcd60e51b815260040161025990611039565b61030781610cd8565b50565b3360009081526001602052604081205460ff166103395760405162461bcd60e51b815260040161025990611082565b5060045490565b3360009081526001602052604090205460ff1661036f5760405162461bcd60e51b815260040161025990611082565b6004805490600061037f83611169565b90915550506040805160808101825283815260208082018490526001600160a01b03861682840152600060608301819052858152600391829052928320018054919284926103ce908490611116565b90915550506004546000908152600560209081526040918290208351815590830151600182015590820151600290910180546060909301511515600160a01b0260ff60a01b196001600160a01b039093166001600160a01b03199094169390931791909116919091179055505050565b3360009081526001602052604081205460609190819081908190819081908190819060ff1661047f5760405162461bcd60e51b815260040161025990611082565b60008a815260036020526040808220815161012081019092528054829082906104a79061112e565b80601f01602080910402602001604051908101604052809291908181526020018280546104d39061112e565b80156105205780601f106104f557610100808354040283529160200191610520565b820191906000526020600020905b81548152906001019060200180831161050357829003601f168201915b505050505081526020016001820160009054906101000a90046001600160401b03166001600160401b03166001600160401b031681526020016001820160089054906101000a90046001600160401b03166001600160401b03166001600160401b031681526020016001820160109054906101000a90046001600160401b03166001600160401b03166001600160401b031681526020016001820160189054906101000a90046001600160401b03166001600160401b03166001600160401b031681526020016002820160009054906101000a900460ff161515151581526020016002820160019054906101000a90046001600160a01b03166001600160a01b03166001600160a01b03168152602001600382015481526020016004820154815250509050806000015181602001518260400151836060015184608001518560a001518660c001518760e00151886101000151995099509950995099509950995099509950509193959799909294969850565b6000546001600160a01b03163314806106bb57503360009081526001602052604090205460ff165b6106d75760405162461bcd60e51b815260040161025990611039565b61030781610cff565b3360009081526001602052604090205460ff1661070f5760405162461bcd60e51b815260040161025990611082565b604080516101406020601f880181900402820181019092526101208101868152600092829190899089908190850183828082843760009201829052509385525050506001600160401b03808816602084015286166040830152606082018190526080820181905260a082018190526001600160a01b038a1660c083015260e0820181905261010090910184905260028054929350906107ad83611169565b909155505060025460009081526003602090815260409091208251805184936107da928492910190610d20565b50602082015160018201805460408501516060860151608087015167ffffffffffffffff199093166001600160401b039586161767ffffffffffffffff60401b1916600160401b928616929092029190911767ffffffffffffffff60801b1916600160801b91851691909102176001600160c01b0316600160c01b939091169290920291909117905560a082015160028201805460c085015160ff1990911692151592909217610100600160a81b0319166101006001600160a01b03909316830217905560e083015160038301559091015160049091015550505050505050565b3360009081526001602052604081205460ff166108ea5760405162461bcd60e51b815260040161025990611082565b5060025490565b3360009081526001602052604081205481908190819060ff166109265760405162461bcd60e51b815260040161025990611082565b505050600091825250600560209081526040918290208251608081018452815480825260018301549382018490526002909201546001600160a01b038116948201859052600160a01b900460ff16151560609091018190529093919291565b6000546001600160a01b0316331490565b6000546001600160a01b031633146109c05760405162461bcd60e51b8152600401610259906110b9565b6000546001600160a01b0316ff5b3360009081526001602052604081205460ff166109fd5760405162461bcd60e51b815260040161025990611082565b5060065490565b3360009081526001602052604090205460ff16610a335760405162461bcd60e51b815260040161025990611082565b60008481526003602052604080822081516101208101909252805482908290610a5b9061112e565b80601f0160208091040260200160405190810160405280929190818152602001828054610a879061112e565b8015610ad45780601f10610aa957610100808354040283529160200191610ad4565b820191906000526020600020905b815481529060010190602001808311610ab757829003601f168201915b505050918352505060018201546001600160401b03808216602080850191909152600160401b83048216604080860191909152600160801b84048316606080870191909152600160c01b9094048316608080870191909152600287015460ff8116151560a0808901919091526001600160a01b03610100928390041660c08901526003808a015460e08a015260049099015491909701528b8416948801949094529189169286019290925286151592850192909252600089815292815291208251805193945084939192610bad92849290910190610d20565b50602082015160018201805460408501516060860151608087015167ffffffffffffffff199093166001600160401b039586161767ffffffffffffffff60401b1916600160401b928616929092029190911767ffffffffffffffff60801b1916600160801b91851691909102176001600160c01b0316600160c01b939091169290920291909117905560a082015160028201805460c085015160ff1990911692151592909217610100600160a81b0319166101006001600160a01b03909316830217905560e08301516003830155909101516004909101555050505050565b6000546001600160a01b03163314610cb65760405162461bcd60e51b8152600401610259906110b9565b600080546001600160a01b0319166001600160a01b0392909216919091179055565b6001600160a01b03166000908152600160208190526040909120805460ff19169091179055565b6001600160a01b03166000908152600160205260409020805460ff19169055565b828054610d2c9061112e565b90600052602060002090601f016020900481019282610d4e5760008555610d94565b82601f10610d6757805160ff1916838001178555610d94565b82800160010185558215610d94579182015b82811115610d94578251825591602001919060010190610d79565b50610da0929150610da4565b5090565b5b80821115610da05760008155600101610da5565b80356001600160a01b0381168114610dd057600080fd5b919050565b80356001600160401b0381168114610dd057600080fd5b600060208284031215610dfd578081fd5b610e0682610db9565b9392505050565b60008060008060008060a08789031215610e25578182fd5b610e2e87610db9565b955060208701356001600160401b0380821115610e49578384fd5b818901915089601f830112610e5c578384fd5b813581811115610e6a578485fd5b8a6020828501011115610e7b578485fd5b602083019750809650505050610e9360408801610dd5565b9250610ea160608801610dd5565b9150608087013590509295509295509295565b600080600060608486031215610ec8578283fd5b610ed184610db9565b95602085013595506040909401359392505050565b600060208284031215610ef7578081fd5b5035919050565b60008060008060808587031215610f13578384fd5b84359350610f2360208601610dd5565b9250610f3160408601610dd5565b915060608501358015158114610f45578182fd5b939692955090935050565b6001600160a01b03169052565b15159052565b6001600160401b03169052565b901515815260200190565b60006101208083528b5180828501528291505b80821015610fb0576020828e0101516101408386010152602082019150610f8e565b80821115610fc2578261014082860101525b601f01601f19168301610140019150610fe09050602083018b610f63565b610fed604083018a610f63565b610ffa6060830189610f63565b6110076080830188610f63565b61101460a0830187610f5d565b61102160c0830186610f50565b60e08201939093526101000152979650505050505050565b60208082526029908201527f63616c6c6572206d757374206265206f776e6572206f7220617574686f72697a60408201526832b21031b0b63632b960b91b606082015260800190565b60208082526019908201527f63616c6c6572206d75737420626520617574686f72697a656400000000000000604082015260600190565b60208082526014908201527331b0b63632b91036bab9ba1031329037bbb732b960611b604082015260600190565b90815260200190565b93845260208401929092526001600160a01b031660408301521515606082015260800190565b6000821982111561112957611129611184565b500190565b60028104600182168061114257607f821691505b6020821081141561116357634e487b7160e01b600052602260045260246000fd5b50919050565b600060001982141561117d5761117d611184565b5060010190565b634e487b7160e01b600052601160045260246000fdfea26469706673582212204cd77e2f8e2bb8328e146ea784d8ef67779b4286c07b6fca046cc20d262477e964736f6c63430008000033",
  "immutableReferences": {},
  "source": "// SPDX-License-Identifier: UNLICENSED\npragma solidity ^0.8.00;\n\nimport \"../Ownable/Ownable.sol\";\nimport \"../CallerAuditable/CallerAuditable.sol\";\nimport \"./FlightSuretyDataBase.sol\";\n\ncontract FlightSuretyData is Ownable, CallerAuditable, FlightSuretyDataBase {\n    modifier onlyOwnerOrAuthorizedCaller() {\n        require(\n            msg.sender == owner || authorizedCallers[msg.sender],\n            \"caller must be owner or authorized caller\"\n        );\n        _;\n    }\n\n    // constructor setting owner and initial authorized caller address aka appAddress and oracle contract address\n    constructor(address _appContractAddress, address _oracleContractAddress)\n        Ownable()\n    {\n        authorizedCallers[_appContractAddress] = true;\n        authorizedCallers[_oracleContractAddress] = true;\n    }\n\n    /** caller authorization */\n    // authorize a new caller to call the contract\n    function authorizeCaller(address _caller)\n        external\n        onlyOwnerOrAuthorizedCaller\n    {\n        _authorizeCaller(_caller);\n    }\n\n    // remove an existing caller rights to call the contract\n    function unauthorizeCaller(address _caller)\n        external\n        onlyOwnerOrAuthorizedCaller\n    {\n        _unauthorizeCaller(_caller);\n    }\n\n    // flights  management\n    // register a new flight for a given insurance provider aka airline\n    function registerFlight(\n        address _caller,\n        string calldata _flightRef,\n        uint64 _estimatedDeparture,\n        uint64 _estimatedArrival,\n        uint256 _rate\n    ) external onlyAuthorizedCaller {\n        Flight memory _flight = Flight({\n            flightRef: _flightRef,\n            estimatedDeparture: _estimatedDeparture,\n            estimatedArrival: _estimatedArrival,\n            realDeparture: 0,\n            realArrival: 0,\n            isLate: false,\n            insuranceProvider: _caller,\n            insuredValue: 0,\n            rate: _rate\n        });\n\n        currentFlightID++;\n        flights[currentFlightID] = _flight;\n    }\n\n    // update flight data\n    function updateFlight(\n        uint256 _flightID,\n        uint64 _realDeparture,\n        uint64 _realArrival,\n        bool _isLate\n    ) external onlyAuthorizedCaller {\n        Flight memory _flight = flights[_flightID];\n        _flight.realDeparture = _realDeparture;\n        _flight.realArrival = _realArrival;\n        _flight.isLate = _isLate;\n        flights[_flightID] = _flight;\n    }\n\n    // get current autoincrementing id of a given insurance provider aka airline\n    function getCurrentFlightID()\n        external\n        view\n        onlyAuthorizedCaller\n        returns (uint256)\n    {\n        return currentFlightID;\n    }\n\n    // fetch a flight\n    function getFlight(uint256 _flightID)\n        external\n        view\n        onlyAuthorizedCaller\n        returns (\n            string memory flightRef,\n            uint64 estimatedDeparture,\n            uint64 estimatedArrival,\n            uint64 realDeparture,\n            uint64 realArrival,\n            bool isLate,\n            address insuranceProvider,\n            uint256 insuredValue,\n            uint256 rate\n        )\n    {\n        Flight memory flight = flights[_flightID];\n        return (\n            flight.flightRef,\n            flight.estimatedDeparture,\n            flight.estimatedArrival,\n            flight.realDeparture,\n            flight.realArrival,\n            flight.isLate,\n            flight.insuranceProvider,\n            flight.insuredValue,\n            flight.rate\n        );\n    }\n\n    /** insurance management */\n\n    // insure a passenger for a given flight\n    function insure(\n        address _caller,\n        uint256 _flightID,\n        uint256 _insuredValue\n    ) external onlyAuthorizedCaller {\n        currentInsuranceID++;\n        Insurance memory _insurance = Insurance({\n            flightID: _flightID,\n            insuredValue: _insuredValue,\n            owner: _caller,\n            claimed: false\n        });\n        flights[_flightID].insuredValue += _insuredValue;\n        insurances[currentInsuranceID] = _insurance;\n    }\n\n    // set an insurance claimed attribute to true\n    function setInsuranceToClaimed(uint256 _insuranceID)\n        external\n        onlyAuthorizedCaller\n    {\n        insurances[_insuranceID].claimed = true;\n    }\n\n    // amend the total insured value\n    function setTotalInsuredValue(uint256 _totalInsuredValue)\n        external\n        onlyAuthorizedCaller\n    {\n        totalInsuredValue = _totalInsuredValue;\n    }\n\n    // fetch the current autoincrementing ID of a given passenger\n    function getCurrentInsuranceID()\n        external\n        view\n        onlyAuthorizedCaller\n        returns (uint256)\n    {\n        return currentInsuranceID;\n    }\n\n    // fetch a passenger's insurance\n    function getInsurance(uint256 _insuranceID)\n        external\n        view\n        onlyAuthorizedCaller\n        returns (\n            uint256 flightID,\n            uint256 insuredValue,\n            address owner,\n            bool claimed\n        )\n    {\n        Insurance memory insurance = insurances[_insuranceID];\n        return (\n            insurance.flightID,\n            insurance.insuredValue,\n            insurance.owner,\n            insurance.claimed\n        );\n    }\n\n    // fetch the current total insured value\n    function getTotalInsuredValue()\n        external\n        view\n        onlyAuthorizedCaller\n        returns (uint256)\n    {\n        return totalInsuredValue;\n    }\n}\n",
  "sourcePath": "/Users/devonmartens/udacity/Flight-Survey-DOA/contracts/FlightSuretyData/FlightSuretyData.sol",
  "compiler": {
    "name": "solc",
    "version": "0.8.0+commit.c7dfd78e.Emscripten.clang"
  },
  "schemaVersion": "3.4.3",
  "updatedAt": "2021-10-21T15:57:37.242Z",
  "networkType": "ethereum",
  "devdoc": {
    "kind": "dev",
    "methods": {},
    "version": 1
  },
  "userdoc": {
    "kind": "user",
    "methods": {
      "authorizeCaller(address)": {
        "notice": "caller authorization "
      },
      "insure(address,uint256,uint256)": {
        "notice": "insurance management "
      }
    },
    "version": 1
  }
}