{
  "contractName": "InsuranceProviderRole",
  "abi": [
    {
      "inputs": [
        {
          "internalType": "address",
          "name": "_appContractAddress",
          "type": "address"
        }
      ],
      "stateMutability": "nonpayable",
      "type": "constructor"
    },
    {
      "inputs": [],
      "name": "destructContract",
      "outputs": [],
      "stateMutability": "nonpayable",
      "type": "function"
    },
    {
      "inputs": [],
      "name": "isOwner",
      "outputs": [
        {
          "internalType": "bool",
          "name": "_isOwner",
          "type": "bool"
        }
      ],
      "stateMutability": "view",
      "type": "function",
      "constant": true
    },
    {
      "inputs": [
        {
          "internalType": "address",
          "name": "_newOwner",
          "type": "address"
        }
      ],
      "name": "transferOwnership",
      "outputs": [],
      "stateMutability": "nonpayable",
      "type": "function"
    },
    {
      "inputs": [
        {
          "internalType": "address",
          "name": "_caller",
          "type": "address"
        }
      ],
      "name": "authorizeCaller",
      "outputs": [],
      "stateMutability": "nonpayable",
      "type": "function"
    },
    {
      "inputs": [
        {
          "internalType": "address",
          "name": "_caller",
          "type": "address"
        }
      ],
      "name": "unauthorizeCaller",
      "outputs": [],
      "stateMutability": "nonpayable",
      "type": "function"
    },
    {
      "inputs": [
        {
          "internalType": "address",
          "name": "_caller",
          "type": "address"
        }
      ],
      "name": "isRegisteredInsuranceProvider",
      "outputs": [
        {
          "internalType": "bool",
          "name": "",
          "type": "bool"
        }
      ],
      "stateMutability": "view",
      "type": "function",
      "constant": true
    },
    {
      "inputs": [
        {
          "internalType": "address",
          "name": "_caller",
          "type": "address"
        }
      ],
      "name": "isActivatedInsuranceProvider",
      "outputs": [
        {
          "internalType": "bool",
          "name": "",
          "type": "bool"
        }
      ],
      "stateMutability": "view",
      "type": "function",
      "constant": true
    },
    {
      "inputs": [
        {
          "internalType": "address",
          "name": "_account",
          "type": "address"
        },
        {
          "internalType": "address",
          "name": "_caller",
          "type": "address"
        }
      ],
      "name": "hasVotedInsuranceProviderMembership",
      "outputs": [
        {
          "internalType": "bool",
          "name": "",
          "type": "bool"
        }
      ],
      "stateMutability": "view",
      "type": "function",
      "constant": true
    },
    {
      "inputs": [
        {
          "internalType": "bool",
          "name": "_side",
          "type": "bool"
        },
        {
          "internalType": "address",
          "name": "_caller",
          "type": "address"
        },
        {
          "internalType": "uint256",
          "name": "consensusTreshold",
          "type": "uint256"
        }
      ],
      "name": "hasReachedConsensusInsuranceProviderMembership",
      "outputs": [
        {
          "internalType": "bool",
          "name": "",
          "type": "bool"
        }
      ],
      "stateMutability": "view",
      "type": "function",
      "constant": true
    },
    {
      "inputs": [
        {
          "internalType": "bool",
          "name": "_side",
          "type": "bool"
        },
        {
          "internalType": "address",
          "name": "_caller",
          "type": "address"
        }
      ],
      "name": "getInsuranceProviderMembershipCurrentMembershipVotes",
      "outputs": [
        {
          "internalType": "uint256",
          "name": "",
          "type": "uint256"
        }
      ],
      "stateMutability": "view",
      "type": "function",
      "constant": true
    },
    {
      "inputs": [],
      "name": "getRegisteredInsuranceProvidersCount",
      "outputs": [
        {
          "internalType": "uint256",
          "name": "count",
          "type": "uint256"
        }
      ],
      "stateMutability": "view",
      "type": "function",
      "constant": true
    },
    {
      "inputs": [],
      "name": "getActivatedInsuranceProvidersCount",
      "outputs": [
        {
          "internalType": "uint256",
          "name": "count",
          "type": "uint256"
        }
      ],
      "stateMutability": "view",
      "type": "function",
      "constant": true
    },
    {
      "inputs": [
        {
          "internalType": "address",
          "name": "_caller",
          "type": "address"
        }
      ],
      "name": "addInsuranceProvider",
      "outputs": [],
      "stateMutability": "nonpayable",
      "type": "function"
    },
    {
      "inputs": [
        {
          "internalType": "address",
          "name": "_account",
          "type": "address"
        }
      ],
      "name": "renounceInsuranceProvider",
      "outputs": [],
      "stateMutability": "nonpayable",
      "type": "function"
    },
    {
      "inputs": [
        {
          "internalType": "address",
          "name": "_caller",
          "type": "address"
        },
        {
          "internalType": "address",
          "name": "_account",
          "type": "address"
        },
        {
          "internalType": "uint256",
          "name": "_voteWeight",
          "type": "uint256"
        }
      ],
      "name": "voteInsuranceProviderMembership",
      "outputs": [],
      "stateMutability": "nonpayable",
      "type": "function"
    },
    {
      "inputs": [
        {
          "internalType": "address",
          "name": "_account",
          "type": "address"
        },
        {
          "internalType": "uint256",
          "name": "_amount",
          "type": "uint256"
        }
      ],
      "name": "fundInsuranceProvider",
      "outputs": [],
      "stateMutability": "nonpayable",
      "type": "function"
    },
    {
      "inputs": [
        {
          "internalType": "address",
          "name": "_account",
          "type": "address"
        }
      ],
      "name": "isFundedInsuranceProvider",
      "outputs": [
        {
          "internalType": "bool",
          "name": "isFunded",
          "type": "bool"
        }
      ],
      "stateMutability": "view",
      "type": "function",
      "constant": true
    },
    {
      "inputs": [
        {
          "internalType": "address",
          "name": "_account",
          "type": "address"
        }
      ],
      "name": "activateInsuranceProvider",
      "outputs": [],
      "stateMutability": "nonpayable",
      "type": "function"
    }
  ],
  "bytecode": "0x608060405234801561001057600080fd5b50604051610cd5380380610cd583398101604081905261002f9161006b565b600080546001600160a01b031916331781556001600160a01b03919091168152600160208190526040909120805460ff19169091179055610099565b60006020828403121561007c578081fd5b81516001600160a01b0381168114610092578182fd5b9392505050565b610c2d806100a86000396000f3fe608060405234801561001057600080fd5b50600436106101165760003560e01c80639499e018116100a2578063d81bfa8911610071578063d81bfa8914610216578063d8ccc47a14610229578063e55732ef1461023c578063ee2a4d481461024f578063f2fde38b1461025757610116565b80639499e018146101d5578063ae20a65c146101dd578063c287a648146101f0578063ccdad3581461020357610116565b80634ac8c5ae116100e95780634ac8c5ae146101815780635a2449a9146101945780637cd91315146101a75780638f32d59b146101ba5780639419701b146101c257610116565b8063041e38781461011b5780630d2dee88146101445780632c388d5d146101645780632dfa077c14610179575b600080fd5b61012e610129366004610a22565b61026a565b60405161013b9190610af0565b60405180910390f35b610157610152366004610ab8565b6102b5565b60405161013b9190610ba9565b610177610172366004610a08565b6102f0565b005b610157610340565b61017761018f366004610a08565b61037c565b6101776101a2366004610a08565b6103c9565b6101776101b5366004610a54565b610401565b61012e610444565b6101776101d0366004610a8f565b610455565b6101776104a0565b6101776101eb366004610a08565b6104d8565b61012e6101fe366004610ad3565b610510565b61012e610211366004610a08565b610556565b61012e610224366004610a08565b610596565b610177610237366004610a08565b6105ce565b61012e61024a366004610a08565b610606565b610157610663565b610177610265366004610a08565b61069a565b3360009081526001602052604081205460ff166102a25760405162461bcd60e51b815260040161029990610b44565b60405180910390fd5b6102ac83836106e6565b90505b92915050565b3360009081526001602052604081205460ff166102e45760405162461bcd60e51b815260040161029990610b44565b6102ac600683856106f4565b6000546001600160a01b031633148061031857503360009081526001602052604090205460ff165b6103345760405162461bcd60e51b815260040161029990610afb565b61033d8161071e565b50565b3360009081526001602052604081205460ff1661036f5760405162461bcd60e51b815260040161029990610b44565b610377610745565b905090565b6000546001600160a01b03163314806103a457503360009081526001602052604090205460ff165b6103c05760405162461bcd60e51b815260040161029990610afb565b61033d81610751565b3360009081526001602052604090205460ff166103f85760405162461bcd60e51b815260040161029990610b44565b61033d81610772565b3360009081526001602052604090205460ff166104305760405162461bcd60e51b815260040161029990610b44565b61043f6006846001858561077d565b505050565b6000546001600160a01b0316331490565b3360009081526001602052604090205460ff166104845760405162461bcd60e51b815260040161029990610b44565b6001600160a01b03909116600090815260086020526040902055565b6000546001600160a01b031633146104ca5760405162461bcd60e51b815260040161029990610b7b565b6000546001600160a01b0316ff5b3360009081526001602052604090205460ff166105075760405162461bcd60e51b815260040161029990610b44565b61033d816107f3565b3360009081526001602052604081205460ff1661053f5760405162461bcd60e51b815260040161029990610b44565b61054c60068585856107fe565b90505b9392505050565b3360009081526001602052604081205460ff166105855760405162461bcd60e51b815260040161029990610b44565b61058e8261083c565b90505b919050565b3360009081526001602052604081205460ff166105c55760405162461bcd60e51b815260040161029990610b44565b61058e82610849565b3360009081526001602052604090205460ff166105fd5760405162461bcd60e51b815260040161029990610b44565b61033d81610856565b3360009081526001602052604081205460ff166106355760405162461bcd60e51b815260040161029990610b44565b6001600160a01b0382166000908152600860205260409020541561065b57506001610591565b506000610591565b3360009081526001602052604081205460ff166106925760405162461bcd60e51b815260040161029990610b44565b610377610861565b6000546001600160a01b031633146106c45760405162461bcd60e51b815260040161029990610b7b565b600080546001600160a01b0319166001600160a01b0392909216919091179055565b60006102ac6006838561086d565b6001600160a01b039190911660009081526020928352604080822092151582529190925290205490565b6001600160a01b03166000908152600160208190526040909120805460ff19169091179055565b600061037760026108af565b6001600160a01b03166000908152600160205260409020805460ff19169055565b61033d6002826108b6565b6001600160a01b0382166000908152602086815260408083208615158452909152812080548392906107b0908490610bb2565b9091555050506001600160a01b03908116600090815260019490940160209081526040808620949092168552929092529120805460ff1916911515919091179055565b61033d6002826108f6565b6001600160a01b0382166000908152602085815260408083208615158452909152812054821161083057506001610834565b5060005b949350505050565b600061058e600283610926565b600061058e600283610957565b61033d600282610982565b600061037760026109c2565b6001600160a01b038082166000908152600185016020908152604080832093861683529290529081205460ff16156108a75750600161054f565b50600061054f565b6002015490565b6001600160a01b0381166000908152602083905260409020805460ff1916600190811790915560028301546108ea916109c9565b82600201819055505050565b6001600160a01b0381166000908152602083905260409020805460ff1916905560028201546108ea9060016109d5565b6001600160a01b03811660009081526020839052604081205460ff161561094f575060016102af565b5060006102af565b6001600160a01b038116600090815260018301602052604081205460ff161561094f575060016102af565b6001600160a01b038116600090815260018381016020526040909120805460ff19168217905560038301546109b6916109c9565b82600301819055505050565b6003015490565b60006102ac8284610bb2565b60006102ac8284610bca565b80356001600160a01b038116811461059157600080fd5b8035801515811461059157600080fd5b600060208284031215610a19578081fd5b6102ac826109e1565b60008060408385031215610a34578081fd5b610a3d836109e1565b9150610a4b602084016109e1565b90509250929050565b600080600060608486031215610a68578081fd5b610a71846109e1565b9250610a7f602085016109e1565b9150604084013590509250925092565b60008060408385031215610aa1578182fd5b610aaa836109e1565b946020939093013593505050565b60008060408385031215610aca578182fd5b610a3d836109f8565b600080600060608486031215610ae7578283fd5b610a71846109f8565b901515815260200190565b60208082526029908201527f63616c6c6572206d757374206265206f776e6572206f7220617574686f72697a60408201526832b21031b0b63632b960b91b606082015260800190565b60208082526019908201527f63616c6c6572206d75737420626520617574686f72697a656400000000000000604082015260600190565b60208082526014908201527331b0b63632b91036bab9ba1031329037bbb732b960611b604082015260600190565b90815260200190565b60008219821115610bc557610bc5610be1565b500190565b600082821015610bdc57610bdc610be1565b500390565b634e487b7160e01b600052601160045260246000fdfea264697066735822122084b51cdbb9e2f389b9d98d0fc6d5b9d0682898da39ab2698b47671bee5384b5764736f6c63430008000033",
  "immutableReferences": {},
  "source": "// SPDX-License-Identifier: UNLICENSED\npragma solidity ^0.8.00;\n\nimport \"../libraries/Rolable.sol\";\nimport \"../libraries/Votable.sol\";\nimport \"../Ownable/Ownable.sol\";\nimport \"../CallerAuditable/CallerAuditable.sol\";\n\ncontract InsuranceProviderRole is Ownable, CallerAuditable {\n    using Rolable for Rolable.Role;\n    Rolable.Role insuranceProviders;\n    using Votable for Votable.MembershipVote;\n    Votable.MembershipVote insuranceProvidersVote;\n    mapping(address => uint256) insuranceProvidersFunding;\n\n    modifier onlyOwnerOrAuthorizedCaller() {\n        require(\n            msg.sender == owner || authorizedCallers[msg.sender],\n            \"caller must be owner or authorized caller\"\n        );\n        _;\n    }\n\n    // constructor setting owner and initial authorized caller address aka appAddress\n    constructor(address _appContractAddress) Ownable() {\n        authorizedCallers[_appContractAddress] = true;\n    }\n\n    /** caller authorization */\n\n    // authorize a new caller to call the contract\n    function authorizeCaller(address _caller)\n        external\n        onlyOwnerOrAuthorizedCaller\n    {\n        _authorizeCaller(_caller);\n    }\n\n    // remove an existing caller rights to call the contract\n    function unauthorizeCaller(address _caller)\n        external\n        onlyOwnerOrAuthorizedCaller\n    {\n        _unauthorizeCaller(_caller);\n    }\n\n    /** insurance providers management (CHECK + ADD + REMOVE + VOTE) */\n\n    // check if an insurance provider aka airline is registered\n    function isRegisteredInsuranceProvider(address _caller)\n        external\n        view\n        onlyAuthorizedCaller\n        returns (bool)\n    {\n        return _isRegisteredInsuranceProvider(_caller);\n    }\n\n    // check if an insurance provider aka airline is activated\n    function isActivatedInsuranceProvider(address _caller)\n        external\n        view\n        onlyAuthorizedCaller\n        returns (bool)\n    {\n        return _isActivatedInsuranceProvider(_caller);\n    }\n\n    // check if the caller has voted for insurance provider memebrship of an account\n    function hasVotedInsuranceProviderMembership(\n        address _account,\n        address _caller\n    ) external view onlyAuthorizedCaller returns (bool) {\n        return _hasVotedInsuranceProviderMembership(_account, _caller);\n    }\n\n    // check if an address currently voted for insurance provider membership has reached consensus among the community\n    function hasReachedConsensusInsuranceProviderMembership(\n        bool _side,\n        address _caller,\n        uint256 consensusTreshold\n    ) external view onlyAuthorizedCaller returns (bool) {\n        return\n            insuranceProvidersVote.hasReachedConsensusMembership(\n                _side,\n                _caller,\n                consensusTreshold\n            );\n    }\n\n    // get the current votes number for a given account\n    function getInsuranceProviderMembershipCurrentMembershipVotes(\n        bool _side,\n        address _caller\n    ) external view onlyAuthorizedCaller returns (uint256) {\n        return insuranceProvidersVote.getCurrentMembershipVotes(_caller, _side);\n    }\n\n    // fetch current registered insurance provider count\n    function getRegisteredInsuranceProvidersCount()\n        external\n        view\n        onlyAuthorizedCaller\n        returns (uint256 count)\n    {\n        return _getRegisteredInsuranceProvidersCount();\n    }\n\n    // fetch current activated insurance provider count\n    function getActivatedInsuranceProvidersCount()\n        external\n        view\n        onlyAuthorizedCaller\n        returns (uint256 count)\n    {\n        return _getActivatedInsuranceProvidersCount();\n    }\n\n    // register an insurance provider aka airline\n    function addInsuranceProvider(address _caller)\n        external\n        onlyAuthorizedCaller\n    {\n        _addInsuranceProvider(_caller);\n    }\n\n    // remove an insurance provider aka airline\n    function renounceInsuranceProvider(address _account)\n        external\n        onlyAuthorizedCaller\n    {\n        _renounceInsuranceProvider(_account);\n    }\n\n    // vote for an insurance provider aka airline activation and membership\n    function voteInsuranceProviderMembership(\n        address _caller,\n        address _account,\n        uint256 _voteWeight\n    ) external onlyAuthorizedCaller {\n        insuranceProvidersVote.voteMembership(\n            _caller,\n            true,\n            _account,\n            _voteWeight\n        );\n    }\n\n    // fund an insurance provider aka airline\n    function fundInsuranceProvider(address _account, uint256 _amount)\n        external\n        onlyAuthorizedCaller\n    {\n        insuranceProvidersFunding[_account] = _amount;\n    }\n\n    // check if a given account is funded\n    function isFundedInsuranceProvider(address _account)\n        external\n        view\n        onlyAuthorizedCaller\n        returns (bool isFunded)\n    {\n        if (insuranceProvidersFunding[_account] > 0) {\n            return true;\n        } else {\n            return false;\n        }\n    }\n\n    // activate an insurance provider aka airline\n    function activateInsuranceProvider(address _account)\n        external\n        onlyAuthorizedCaller\n    {\n        _activateInsuranceProvider(_account);\n    }\n\n    function _isRegisteredInsuranceProvider(address _caller)\n        internal\n        view\n        returns (bool)\n    {\n        return insuranceProviders.isRegistered(_caller);\n    }\n\n    function _isActivatedInsuranceProvider(address _caller)\n        internal\n        view\n        returns (bool)\n    {\n        return insuranceProviders.isActivated(_caller);\n    }\n\n    function _hasVotedInsuranceProviderMembership(\n        address _account,\n        address _caller\n    ) internal view returns (bool) {\n        return insuranceProvidersVote.hasVotedMembership(_caller, _account);\n    }\n\n    function _getRegisteredInsuranceProvidersCount()\n        internal\n        view\n        returns (uint256 count)\n    {\n        return insuranceProviders.getRegisteredAccountsCount();\n    }\n\n    function _getActivatedInsuranceProvidersCount()\n        internal\n        view\n        returns (uint256 count)\n    {\n        return insuranceProviders.getActiveAccountsCount();\n    }\n\n    function _addInsuranceProvider(address _account) internal {\n        insuranceProviders.add(_account);\n    }\n\n    function _renounceInsuranceProvider(address _account) internal {\n        insuranceProviders.remove(_account);\n    }\n\n    function _activateInsuranceProvider(address _account) internal {\n        insuranceProviders.activate(_account);\n    }\n}\n",
  "sourcePath": "/Users/devonmartens/udacity/Flight-Survey-DOA/contracts/roles/InsuranceProviderRole.sol",
  "compiler": {
    "name": "solc",
    "version": "0.8.0+commit.c7dfd78e.Emscripten.clang"
  },
  "schemaVersion": "3.4.3",
  "updatedAt": "2021-10-21T15:57:37.250Z",
  "networkType": "ethereum",
  "devdoc": {
    "kind": "dev",
    "methods": {},
    "version": 1
  },
  "userdoc": {
    "kind": "user",
    "methods": {
      "authorizeCaller(address)": {
        "notice": "caller authorization "
      },
      "isRegisteredInsuranceProvider(address)": {
        "notice": "insurance providers management (CHECK + ADD + REMOVE + VOTE) "
      }
    },
    "version": 1
  }
}