{
  "contractName": "InsuranceCoverageAmendmentProposal",
  "abi": [
    {
      "inputs": [
        {
          "internalType": "address",
          "name": "_appContractAddress",
          "type": "address"
        },
        {
          "internalType": "uint256",
          "name": "_currentInsuranceCoverage",
          "type": "uint256"
        }
      ],
      "stateMutability": "nonpayable",
      "type": "constructor"
    },
    {
      "inputs": [],
      "name": "destructContract",
      "outputs": [],
      "stateMutability": "nonpayable",
      "type": "function"
    },
    {
      "inputs": [],
      "name": "isOwner",
      "outputs": [
        {
          "internalType": "bool",
          "name": "_isOwner",
          "type": "bool"
        }
      ],
      "stateMutability": "view",
      "type": "function",
      "constant": true
    },
    {
      "inputs": [
        {
          "internalType": "address",
          "name": "_newOwner",
          "type": "address"
        }
      ],
      "name": "transferOwnership",
      "outputs": [],
      "stateMutability": "nonpayable",
      "type": "function"
    },
    {
      "inputs": [
        {
          "internalType": "address",
          "name": "_caller",
          "type": "address"
        }
      ],
      "name": "authorizeCaller",
      "outputs": [],
      "stateMutability": "nonpayable",
      "type": "function"
    },
    {
      "inputs": [
        {
          "internalType": "address",
          "name": "_caller",
          "type": "address"
        }
      ],
      "name": "unauthorizeCaller",
      "outputs": [],
      "stateMutability": "nonpayable",
      "type": "function"
    },
    {
      "inputs": [
        {
          "internalType": "address",
          "name": "_caller",
          "type": "address"
        },
        {
          "internalType": "uint256",
          "name": "_proposedValue",
          "type": "uint256"
        },
        {
          "internalType": "uint256",
          "name": "_voteWeight",
          "type": "uint256"
        }
      ],
      "name": "registerInsuranceCoverageAmendmentProposal",
      "outputs": [],
      "stateMutability": "nonpayable",
      "type": "function"
    },
    {
      "inputs": [
        {
          "internalType": "uint256",
          "name": "_proposalID",
          "type": "uint256"
        }
      ],
      "name": "isInsuranceCoverageAmendmentProposalSet",
      "outputs": [
        {
          "internalType": "bool",
          "name": "_set",
          "type": "bool"
        }
      ],
      "stateMutability": "view",
      "type": "function",
      "constant": true
    },
    {
      "inputs": [
        {
          "internalType": "uint256",
          "name": "_proposalID",
          "type": "uint256"
        },
        {
          "internalType": "address",
          "name": "_caller",
          "type": "address"
        },
        {
          "internalType": "bool",
          "name": "_side",
          "type": "bool"
        },
        {
          "internalType": "uint256",
          "name": "_voteWeight",
          "type": "uint256"
        }
      ],
      "name": "voteInsuranceCoverageAmendmentProposal",
      "outputs": [],
      "stateMutability": "nonpayable",
      "type": "function"
    },
    {
      "inputs": [
        {
          "internalType": "uint256",
          "name": "_proposalID",
          "type": "uint256"
        }
      ],
      "name": "activateInsuranceCoverageAmendmentProposal",
      "outputs": [],
      "stateMutability": "nonpayable",
      "type": "function"
    },
    {
      "inputs": [
        {
          "internalType": "address",
          "name": "_caller",
          "type": "address"
        },
        {
          "internalType": "uint256",
          "name": "_proposalID",
          "type": "uint256"
        }
      ],
      "name": "hasVotedInsuranceCoverageAmendmentProposal",
      "outputs": [
        {
          "internalType": "bool",
          "name": "_hasVoted",
          "type": "bool"
        }
      ],
      "stateMutability": "view",
      "type": "function",
      "constant": true
    },
    {
      "inputs": [
        {
          "internalType": "uint256",
          "name": "_proposalID",
          "type": "uint256"
        },
        {
          "internalType": "bool",
          "name": "_side",
          "type": "bool"
        }
      ],
      "name": "getVoteCountInsuranceCoverageAmendmentProposal",
      "outputs": [
        {
          "internalType": "uint256",
          "name": "count",
          "type": "uint256"
        }
      ],
      "stateMutability": "view",
      "type": "function",
      "constant": true
    },
    {
      "inputs": [],
      "name": "getCurrentInsuranceCoverage",
      "outputs": [
        {
          "internalType": "uint256",
          "name": "_currentInsuranceCoverage",
          "type": "uint256"
        }
      ],
      "stateMutability": "view",
      "type": "function",
      "constant": true
    },
    {
      "inputs": [
        {
          "internalType": "uint256",
          "name": "_proposalID",
          "type": "uint256"
        },
        {
          "internalType": "bool",
          "name": "_side",
          "type": "bool"
        },
        {
          "internalType": "uint256",
          "name": "_consensusTreshold",
          "type": "uint256"
        }
      ],
      "name": "hasInsuranceCoverageAmendmentProposalReachedConsensus",
      "outputs": [
        {
          "internalType": "bool",
          "name": "",
          "type": "bool"
        }
      ],
      "stateMutability": "view",
      "type": "function",
      "constant": true
    },
    {
      "inputs": [],
      "name": "getInsuranceCoverageAmendmentCurrentProposalID",
      "outputs": [
        {
          "internalType": "uint256",
          "name": "currentProposalID",
          "type": "uint256"
        }
      ],
      "stateMutability": "view",
      "type": "function",
      "constant": true
    },
    {
      "inputs": [
        {
          "internalType": "uint256",
          "name": "_proposalID",
          "type": "uint256"
        }
      ],
      "name": "getProposalCreatedAt",
      "outputs": [
        {
          "internalType": "uint256",
          "name": "createdAt",
          "type": "uint256"
        }
      ],
      "stateMutability": "view",
      "type": "function",
      "constant": true
    }
  ],
  "bytecode": "0x608060405234801561001057600080fd5b50604051610b66380380610b6683398101604081905261002f9161006f565b600080546001600160a01b031916331781556001600160a01b03929092168252600160208190526040909220805460ff19169092179091556005556100a7565b60008060408385031215610081578182fd5b82516001600160a01b0381168114610097578283fd5b6020939093015192949293505050565b610ab0806100b66000396000f3fe608060405234801561001057600080fd5b50600436106100f55760003560e01c80638f32d59b11610097578063bafd73a611610066578063bafd73a6146101cf578063c7e51ab7146101e2578063f2fde38b146101f5578063fde0c46314610208576100f5565b80638f32d59b1461018c5780639499e018146101a1578063a0aea5e0146101a9578063a49854d9146101bc576100f5565b80632cb1feed116100d35780632cb1feed146101405780634ac8c5ae146101535780634b8c27fa146101665780637f2020c714610179576100f5565b80630b0c9868146100fa578063130dccaf146101185780632c388d5d1461012b575b600080fd5b610102610210565b60405161010f9190610a28565b60405180910390f35b610102610126366004610910565b610255565b61013e610139366004610840565b610297565b005b61013e61014e3660046108cd565b6102e7565b61013e610161366004610840565b610328565b61013e6101743660046108b5565b610375565b61013e610187366004610883565b6103b8565b6101946103f7565b60405161010f919061096f565b61013e610408565b6101946101b736600461093b565b610440565b6101946101ca36600461085a565b610484565b6101026101dd3660046108b5565b6104bd565b6101946101f03660046108b5565b6104d0565b61013e610203366004610840565b610508565b610102610554565b3360009081526001602052604081205460ff166102485760405162461bcd60e51b815260040161023f906109c3565b60405180910390fd5b61025061058a565b905090565b3360009081526001602052604081205460ff166102845760405162461bcd60e51b815260040161023f906109c3565b61028e8383610590565b90505b92915050565b6000546001600160a01b03163314806102bf57503360009081526001602052604090205460ff165b6102db5760405162461bcd60e51b815260040161023f9061097a565b6102e48161059c565b50565b3360009081526001602052604090205460ff166103165760405162461bcd60e51b815260040161023f906109c3565b610322848484846105c3565b50505050565b6000546001600160a01b031633148061035057503360009081526001602052604090205460ff165b61036c5760405162461bcd60e51b815260040161023f9061097a565b6102e4816105dd565b3360009081526001602052604090205460ff166103a45760405162461bcd60e51b815260040161023f906109c3565b6103ad816105fe565b6102e481600161063f565b3360009081526001602052604090205460ff166103e75760405162461bcd60e51b815260040161023f906109c3565b6103f2838383610662565b505050565b6000546001600160a01b0316331490565b6000546001600160a01b031633146104325760405162461bcd60e51b815260040161023f906109fa565b6000546001600160a01b0316ff5b3360009081526001602052604081205460ff1661046f5760405162461bcd60e51b815260040161023f906109c3565b61047a8484846106dc565b90505b9392505050565b3360009081526001602052604081205460ff166104b35760405162461bcd60e51b815260040161023f906109c3565b61028e83836106f5565b60006104c88261070d565b90505b919050565b3360009081526001602052604081205460ff166104ff5760405162461bcd60e51b815260040161023f906109c3565b6104c882610722565b6000546001600160a01b031633146105325760405162461bcd60e51b815260040161023f906109fa565b600080546001600160a01b0319166001600160a01b0392909216919091179055565b3360009081526001602052604081205460ff166105835760405162461bcd60e51b815260040161023f906109c3565b5060055490565b60025490565b600061028e838361073a565b6001600160a01b03166000908152600160208190526040909120805460ff19169091179055565b600084815260036020526040902061032290848484610752565b6001600160a01b03166000908152600160205260409020805460ff19169055565b6000908152600460209081526040918290208251606081018452815480825260018301549382019390935260029091015460ff161515920191909152600555565b600091825260046020526040909120600201805460ff1916911515919091179055565b60408051606081018252838152436020820152600091810182905260028054919261068c83610a49565b909155505060028054600090815260046020908152604091829020845181559084015160018083019190915591840151908301805460ff19169115159190911790559054610322918690856105c3565b600083815260036020526040812061047a9084846107a9565b600081815260036020526040812061028e90846107d1565b60009081526004602052604090206001015490565b60009081526004602052604090206002015460ff1690565b600082815260036020526040812061028e9083610804565b81151560009081526020859052604081208054839290610773908490610a31565b9091555050506001600160a01b03909116600090815260019092016020526040909120805491151560ff19909216919091179055565b81151560009081526020849052604081205482116107c95750600161047d565b50600061047d565b6001600160a01b038116600090815260018301602052604081205460ff16156107fc57506001610291565b506000610291565b15156000908152602091909152604090205490565b80356001600160a01b03811681146104cb57600080fd5b803580151581146104cb57600080fd5b600060208284031215610851578081fd5b61028e82610819565b6000806040838503121561086c578081fd5b61087583610819565b946020939093013593505050565b600080600060608486031215610897578081fd5b6108a084610819565b95602085013595506040909401359392505050565b6000602082840312156108c6578081fd5b5035919050565b600080600080608085870312156108e2578081fd5b843593506108f260208601610819565b925061090060408601610830565b9396929550929360600135925050565b60008060408385031215610922578182fd5b8235915061093260208401610830565b90509250929050565b60008060006060848603121561094f578283fd5b8335925061095f60208501610830565b9150604084013590509250925092565b901515815260200190565b60208082526029908201527f63616c6c6572206d757374206265206f776e6572206f7220617574686f72697a60408201526832b21031b0b63632b960b91b606082015260800190565b60208082526019908201527f63616c6c6572206d75737420626520617574686f72697a656400000000000000604082015260600190565b60208082526014908201527331b0b63632b91036bab9ba1031329037bbb732b960611b604082015260600190565b90815260200190565b60008219821115610a4457610a44610a64565b500190565b6000600019821415610a5d57610a5d610a64565b5060010190565b634e487b7160e01b600052601160045260246000fdfea26469706673582212209be32e277e8abcbafac9989aed2d0e482057f706f548208b72e09c8acfa72f6d64736f6c63430008000033",
  "immutableReferences": {},
  "source": "// SPDX-License-Identifier: UNLICENSED\npragma solidity ^0.8.00;\n\nimport \"../../Ownable/Ownable.sol\";\nimport \"../../CallerAuditable/CallerAuditable.sol\";\nimport \"../SettingAmendmentProposal/SettingAmendmentProposal.sol\";\n\ncontract InsuranceCoverageAmendmentProposal is\n    Ownable,\n    CallerAuditable,\n    SettingAmendmentProposal\n{\n    uint256 currentInsuranceCoverage;\n\n    modifier onlyOwnerOrAuthorizedCaller() {\n        require(\n            msg.sender == owner || authorizedCallers[msg.sender],\n            \"caller must be owner or authorized caller\"\n        );\n        _;\n    }\n\n    // constructor setting owner and initial authorized caller address aka appAddress and current insurance coverage ratio\n    constructor(address _appContractAddress, uint256 _currentInsuranceCoverage)\n        Ownable()\n    {\n        authorizedCallers[_appContractAddress] = true;\n        currentInsuranceCoverage = _currentInsuranceCoverage;\n    }\n\n    /** caller authorization */\n\n    // authorize a new caller to call the contract\n    function authorizeCaller(address _caller)\n        external\n        onlyOwnerOrAuthorizedCaller\n    {\n        _authorizeCaller(_caller);\n    }\n\n    // remove an existing caller rights to call the contract\n    function unauthorizeCaller(address _caller)\n        external\n        onlyOwnerOrAuthorizedCaller\n    {\n        _unauthorizeCaller(_caller);\n    }\n\n    // register a new insurance coverage ammendment proposal\n    function registerInsuranceCoverageAmendmentProposal(\n        address _caller,\n        uint256 _proposedValue,\n        uint256 _voteWeight\n    ) external onlyAuthorizedCaller {\n        _registerProposal(_caller, _proposedValue, _voteWeight);\n    }\n\n    // cehck wether a proposal is set\n    function isInsuranceCoverageAmendmentProposalSet(uint256 _proposalID)\n        external\n        view\n        onlyAuthorizedCaller\n        returns (bool _set)\n    {\n        return _isProposalSet(_proposalID);\n    }\n\n    // vote an existing insurance coverage amendment proposal\n    function voteInsuranceCoverageAmendmentProposal(\n        uint256 _proposalID,\n        address _caller,\n        bool _side,\n        uint256 _voteWeight\n    ) external onlyAuthorizedCaller {\n        _voteProposal(_proposalID, _caller, _side, _voteWeight);\n    }\n\n    // activate an existing insurance coverage amendment proposal\n    function activateInsuranceCoverageAmendmentProposal(uint256 _proposalID)\n        external\n        onlyAuthorizedCaller\n    {\n        _activateInsuranceCoverageAmendmentProposal(_proposalID);\n        _setProposal(_proposalID, true);\n    }\n\n    // check wether a voter as already voted for a specific proposal\n    function hasVotedInsuranceCoverageAmendmentProposal(\n        address _caller,\n        uint256 _proposalID\n    ) external view onlyAuthorizedCaller returns (bool _hasVoted) {\n        return _hasVotedProposal(_caller, _proposalID);\n    }\n\n    // fetch the current vote count for an insurance coverage amendment proposal\n    function getVoteCountInsuranceCoverageAmendmentProposal(\n        uint256 _proposalID,\n        bool _side\n    ) external view onlyAuthorizedCaller returns (uint256 count) {\n        return\n            _getVoteCountInsuranceCoverageAmendmentProposal(_proposalID, _side);\n    }\n\n    // fetch the current insurance coverage\n    function getCurrentInsuranceCoverage()\n        external\n        view\n        onlyAuthorizedCaller\n        returns (uint256 _currentInsuranceCoverage)\n    {\n        return currentInsuranceCoverage;\n    }\n\n    // check weather a proposal has reached consensus\n    function hasInsuranceCoverageAmendmentProposalReachedConsensus(\n        uint256 _proposalID,\n        bool _side,\n        uint256 _consensusTreshold\n    ) external view onlyAuthorizedCaller returns (bool) {\n        return _hasReachedConsensus(_proposalID, _side, _consensusTreshold);\n    }\n\n    // fetch the membership proposal current proposal ID\n    function getInsuranceCoverageAmendmentCurrentProposalID()\n        external\n        view\n        onlyAuthorizedCaller\n        returns (uint256 currentProposalID)\n    {\n        return _getInsuranceCoverageAmendmentCurrentProposalID();\n    }\n\n    // fetch a proposal createdAt attribute referencing the block number\n    function getProposalCreatedAt(uint256 _proposalID)\n        external\n        view\n        returns (uint256 createdAt)\n    {\n        return _getProposalCreatedAt(_proposalID);\n    }\n\n    function _activateInsuranceCoverageAmendmentProposal(uint256 _proposalID)\n        internal\n    {\n        Proposal memory _proposal = proposals[_proposalID];\n        currentInsuranceCoverage = _proposal.proposedValue;\n    }\n\n    function _getVoteCountInsuranceCoverageAmendmentProposal(\n        uint256 _proposalID,\n        bool _side\n    ) internal view returns (uint256 count) {\n        return _getVoteCount(_proposalID, _side);\n    }\n\n    function _getInsuranceCoverageAmendmentCurrentProposalID()\n        internal\n        view\n        returns (uint256 _currentProposalID)\n    {\n        return currentProposalID;\n    }\n}\n",
  "sourcePath": "/Users/devonmartens/udacity/Flight-Survey-DOA/contracts/amendmentProposals/InsuranceCoverageAmendmentProposal/InsuranceCoverageAmendmentProposal.sol",
  "compiler": {
    "name": "solc",
    "version": "0.8.0+commit.c7dfd78e.Emscripten.clang"
  },
  "schemaVersion": "3.4.3",
  "updatedAt": "2021-10-21T15:57:37.259Z",
  "networkType": "ethereum",
  "devdoc": {
    "kind": "dev",
    "methods": {},
    "version": 1
  },
  "userdoc": {
    "kind": "user",
    "methods": {
      "authorizeCaller(address)": {
        "notice": "caller authorization "
      }
    },
    "version": 1
  }
}