{
  "contractName": "MembershipFeeAmendmentProposal",
  "abi": [
    {
      "inputs": [
        {
          "internalType": "address",
          "name": "_appContractAddress",
          "type": "address"
        },
        {
          "internalType": "uint256",
          "name": "_currentMembershipfee",
          "type": "uint256"
        }
      ],
      "stateMutability": "nonpayable",
      "type": "constructor"
    },
    {
      "inputs": [],
      "name": "destructContract",
      "outputs": [],
      "stateMutability": "nonpayable",
      "type": "function"
    },
    {
      "inputs": [],
      "name": "isOwner",
      "outputs": [
        {
          "internalType": "bool",
          "name": "_isOwner",
          "type": "bool"
        }
      ],
      "stateMutability": "view",
      "type": "function",
      "constant": true
    },
    {
      "inputs": [
        {
          "internalType": "address",
          "name": "_newOwner",
          "type": "address"
        }
      ],
      "name": "transferOwnership",
      "outputs": [],
      "stateMutability": "nonpayable",
      "type": "function"
    },
    {
      "inputs": [
        {
          "internalType": "address",
          "name": "_caller",
          "type": "address"
        }
      ],
      "name": "authorizeCaller",
      "outputs": [],
      "stateMutability": "nonpayable",
      "type": "function"
    },
    {
      "inputs": [
        {
          "internalType": "address",
          "name": "_caller",
          "type": "address"
        }
      ],
      "name": "unauthorizeCaller",
      "outputs": [],
      "stateMutability": "nonpayable",
      "type": "function"
    },
    {
      "inputs": [
        {
          "internalType": "address",
          "name": "_caller",
          "type": "address"
        },
        {
          "internalType": "uint256",
          "name": "_proposedValue",
          "type": "uint256"
        },
        {
          "internalType": "uint256",
          "name": "_voteWeight",
          "type": "uint256"
        }
      ],
      "name": "registerMembershipFeeAmendmentProposal",
      "outputs": [],
      "stateMutability": "nonpayable",
      "type": "function"
    },
    {
      "inputs": [
        {
          "internalType": "uint256",
          "name": "_proposalID",
          "type": "uint256"
        },
        {
          "internalType": "address",
          "name": "_caller",
          "type": "address"
        },
        {
          "internalType": "bool",
          "name": "_side",
          "type": "bool"
        },
        {
          "internalType": "uint256",
          "name": "_voteWeight",
          "type": "uint256"
        }
      ],
      "name": "voteMembershipFeeAmendmentProposal",
      "outputs": [],
      "stateMutability": "nonpayable",
      "type": "function"
    },
    {
      "inputs": [
        {
          "internalType": "uint256",
          "name": "_proposalID",
          "type": "uint256"
        }
      ],
      "name": "activateMembershipFeeAmendmentProposal",
      "outputs": [],
      "stateMutability": "nonpayable",
      "type": "function"
    },
    {
      "inputs": [
        {
          "internalType": "uint256",
          "name": "_proposalID",
          "type": "uint256"
        }
      ],
      "name": "isMembershipFeeAmendmentProposalSet",
      "outputs": [
        {
          "internalType": "bool",
          "name": "set",
          "type": "bool"
        }
      ],
      "stateMutability": "view",
      "type": "function",
      "constant": true
    },
    {
      "inputs": [
        {
          "internalType": "address",
          "name": "_caller",
          "type": "address"
        },
        {
          "internalType": "uint256",
          "name": "_proposalID",
          "type": "uint256"
        }
      ],
      "name": "hasVotedMembershipFeeAmendmentProposal",
      "outputs": [
        {
          "internalType": "bool",
          "name": "_hasVoted",
          "type": "bool"
        }
      ],
      "stateMutability": "view",
      "type": "function",
      "constant": true
    },
    {
      "inputs": [
        {
          "internalType": "uint256",
          "name": "_proposalID",
          "type": "uint256"
        },
        {
          "internalType": "bool",
          "name": "_side",
          "type": "bool"
        }
      ],
      "name": "getVoteCountMembershipFeeAmendmentProposal",
      "outputs": [
        {
          "internalType": "uint256",
          "name": "count",
          "type": "uint256"
        }
      ],
      "stateMutability": "view",
      "type": "function",
      "constant": true
    },
    {
      "inputs": [],
      "name": "getCurrentMembershipFee",
      "outputs": [
        {
          "internalType": "uint256",
          "name": "currentInsuranceCoverage",
          "type": "uint256"
        }
      ],
      "stateMutability": "view",
      "type": "function",
      "constant": true
    },
    {
      "inputs": [],
      "name": "getMembershipFeeAmendmentProposalCurrentProposalID",
      "outputs": [
        {
          "internalType": "uint256",
          "name": "currentProposalID",
          "type": "uint256"
        }
      ],
      "stateMutability": "view",
      "type": "function",
      "constant": true
    },
    {
      "inputs": [
        {
          "internalType": "uint256",
          "name": "_proposalID",
          "type": "uint256"
        },
        {
          "internalType": "bool",
          "name": "_side",
          "type": "bool"
        },
        {
          "internalType": "uint256",
          "name": "_consensusTreshold",
          "type": "uint256"
        }
      ],
      "name": "hasMembershipFeeAmendmentProposalReachedConsensus",
      "outputs": [
        {
          "internalType": "bool",
          "name": "",
          "type": "bool"
        }
      ],
      "stateMutability": "view",
      "type": "function",
      "constant": true
    },
    {
      "inputs": [
        {
          "internalType": "uint256",
          "name": "_proposalID",
          "type": "uint256"
        }
      ],
      "name": "getProposalCreatedAt",
      "outputs": [
        {
          "internalType": "uint256",
          "name": "createdAt",
          "type": "uint256"
        }
      ],
      "stateMutability": "view",
      "type": "function",
      "constant": true
    }
  ],
  "bytecode": "0x608060405234801561001057600080fd5b50604051610b66380380610b6683398101604081905261002f9161006f565b600080546001600160a01b031916331781556001600160a01b03929092168252600160208190526040909220805460ff19169092179091556005556100a7565b60008060408385031215610081578182fd5b82516001600160a01b0381168114610097578283fd5b6020939093015192949293505050565b610ab0806100b66000396000f3fe608060405234801561001057600080fd5b50600436106100f55760003560e01c80638f32d59b11610097578063c8e4fadc11610066578063c8e4fadc146101da578063ca5c1b4f146101e2578063f2fde38b146101ea578063fb0a3345146101fd576100f5565b80638f32d59b146101a45780639499e018146101ac578063b83c24be146101b4578063bafd73a6146101c7576100f5565b80632c388d5d116100d35780632c388d5d1461014b5780634ac8c5ae1461015e578063785e7c101461017157806384c72f9414610184576100f5565b806320df3490146100fa57806321adf82c1461010f5780632992774b14610138575b600080fd5b61010d6101083660046108b5565b610210565b005b61012261011d36600461085a565b61025f565b60405161012f919061096f565b60405180910390f35b6101226101463660046108b5565b6102a1565b61010d610159366004610840565b6102e1565b61010d61016c366004610840565b61032e565b61010d61017f3660046108cd565b61037b565b610197610192366004610910565b6103bc565b60405161012f9190610a28565b6101226103f5565b61010d610406565b6101226101c236600461093b565b61043e565b6101976101d53660046108b5565b610482565b61019761048d565b6101976104c3565b61010d6101f8366004610840565b6104ff565b61010d61020b366004610883565b61054b565b3360009081526001602052604090205460ff166102485760405162461bcd60e51b815260040161023f906109c3565b60405180910390fd5b6102518161058a565b61025c8160016105cb565b50565b3360009081526001602052604081205460ff1661028e5760405162461bcd60e51b815260040161023f906109c3565b61029883836105ee565b90505b92915050565b3360009081526001602052604081205460ff166102d05760405162461bcd60e51b815260040161023f906109c3565b6102d982610606565b90505b919050565b6000546001600160a01b031633148061030957503360009081526001602052604090205460ff165b6103255760405162461bcd60e51b815260040161023f9061097a565b61025c8161061e565b6000546001600160a01b031633148061035657503360009081526001602052604090205460ff165b6103725760405162461bcd60e51b815260040161023f9061097a565b61025c81610645565b3360009081526001602052604090205460ff166103aa5760405162461bcd60e51b815260040161023f906109c3565b6103b684848484610666565b50505050565b3360009081526001602052604081205460ff166103eb5760405162461bcd60e51b815260040161023f906109c3565b6102988383610680565b6000546001600160a01b0316331490565b6000546001600160a01b031633146104305760405162461bcd60e51b815260040161023f906109fa565b6000546001600160a01b0316ff5b3360009081526001602052604081205460ff1661046d5760405162461bcd60e51b815260040161023f906109c3565b61047884848461068c565b90505b9392505050565b60006102d9826106a5565b3360009081526001602052604081205460ff166104bc5760405162461bcd60e51b815260040161023f906109c3565b5060055490565b3360009081526001602052604081205460ff166104f25760405162461bcd60e51b815260040161023f906109c3565b6104fa6106ba565b905090565b6000546001600160a01b031633146105295760405162461bcd60e51b815260040161023f906109fa565b600080546001600160a01b0319166001600160a01b0392909216919091179055565b3360009081526001602052604090205460ff1661057a5760405162461bcd60e51b815260040161023f906109c3565b6105858383836106c0565b505050565b6000908152600460209081526040918290208251606081018452815480825260018301549382019390935260029091015460ff161515920191909152600555565b600091825260046020526040909120600201805460ff1916911515919091179055565b6000818152600360205260408120610298908461073a565b60009081526004602052604090206002015460ff1690565b6001600160a01b03166000908152600160208190526040909120805460ff19169091179055565b6001600160a01b03166000908152600160205260409020805460ff19169055565b60008481526003602052604090206103b69084848461076d565b600061029883836107c4565b60008381526003602052604081206104789084846107dc565b60009081526004602052604090206001015490565b60025490565b6040805160608101825283815243602082015260009181018290526002805491926106ea83610a49565b909155505060028054600090815260046020908152604091829020845181559084015160018083019190915591840151908301805460ff191691151591909117905590546103b691869085610666565b6001600160a01b038116600090815260018301602052604081205460ff16156107655750600161029b565b50600061029b565b8115156000908152602085905260408120805483929061078e908490610a31565b9091555050506001600160a01b03909116600090815260019092016020526040909120805491151560ff19909216919091179055565b60008281526003602052604081206102989083610804565b81151560009081526020849052604081205482116107fc5750600161047b565b50600061047b565b15156000908152602091909152604090205490565b80356001600160a01b03811681146102dc57600080fd5b803580151581146102dc57600080fd5b600060208284031215610851578081fd5b61029882610819565b6000806040838503121561086c578081fd5b61087583610819565b946020939093013593505050565b600080600060608486031215610897578081fd5b6108a084610819565b95602085013595506040909401359392505050565b6000602082840312156108c6578081fd5b5035919050565b600080600080608085870312156108e2578081fd5b843593506108f260208601610819565b925061090060408601610830565b9396929550929360600135925050565b60008060408385031215610922578182fd5b8235915061093260208401610830565b90509250929050565b60008060006060848603121561094f578283fd5b8335925061095f60208501610830565b9150604084013590509250925092565b901515815260200190565b60208082526029908201527f63616c6c6572206d757374206265206f776e6572206f7220617574686f72697a60408201526832b21031b0b63632b960b91b606082015260800190565b60208082526019908201527f63616c6c6572206d75737420626520617574686f72697a656400000000000000604082015260600190565b60208082526014908201527331b0b63632b91036bab9ba1031329037bbb732b960611b604082015260600190565b90815260200190565b60008219821115610a4457610a44610a64565b500190565b6000600019821415610a5d57610a5d610a64565b5060010190565b634e487b7160e01b600052601160045260246000fdfea2646970667358221220d51e0c1e8a27d7ae6403a42fa16eb58756fa0f4a30e311b5fda4ab4b6ed99ab964736f6c63430008000033",
  "immutableReferences": {},
  "source": "// SPDX-License-Identifier: UNLICENSED\npragma solidity ^0.8.00;\n\nimport \"../../Ownable/Ownable.sol\";\nimport \"../../CallerAuditable/CallerAuditable.sol\";\nimport \"../SettingAmendmentProposal/SettingAmendmentProposal.sol\";\n\ncontract MembershipFeeAmendmentProposal is\n    Ownable,\n    CallerAuditable,\n    SettingAmendmentProposal\n{\n    uint256 currentMembershipfee;\n\n    modifier onlyOwnerOrAuthorizedCaller() {\n        require(\n            msg.sender == owner || authorizedCallers[msg.sender],\n            \"caller must be owner or authorized caller\"\n        );\n        _;\n    }\n\n    // constructor setting owner and initial authorized caller address aka appAddress and current membership fee\n    constructor(address _appContractAddress, uint256 _currentMembershipfee)\n        Ownable()\n    {\n        authorizedCallers[_appContractAddress] = true;\n        currentMembershipfee = _currentMembershipfee;\n    }\n\n    /** caller authorization */\n\n    // authorize a new caller to call the contract\n    function authorizeCaller(address _caller)\n        external\n        onlyOwnerOrAuthorizedCaller\n    {\n        _authorizeCaller(_caller);\n    }\n\n    // remove an existing caller rights to call the contract\n    function unauthorizeCaller(address _caller)\n        external\n        onlyOwnerOrAuthorizedCaller\n    {\n        _unauthorizeCaller(_caller);\n    }\n\n    // register a new membership amendment proposal\n    function registerMembershipFeeAmendmentProposal(\n        address _caller,\n        uint256 _proposedValue,\n        uint256 _voteWeight\n    ) external onlyAuthorizedCaller {\n        _registerProposal(_caller, _proposedValue, _voteWeight);\n    }\n\n    // vote an existing memebership fee amendment proposal\n    function voteMembershipFeeAmendmentProposal(\n        uint256 _proposalID,\n        address _caller,\n        bool _side,\n        uint256 _voteWeight\n    ) external onlyAuthorizedCaller {\n        _voteProposal(_proposalID, _caller, _side, _voteWeight);\n    }\n\n    // activate an existing membership fee amendement proposal\n    function activateMembershipFeeAmendmentProposal(uint256 _proposalID)\n        external\n        onlyAuthorizedCaller\n    {\n        _activateMembershipFeeAmendmentProposal(_proposalID);\n        _setProposal(_proposalID, true);\n    }\n\n    // cehck wether a proposal is set\n    function isMembershipFeeAmendmentProposalSet(uint256 _proposalID)\n        external\n        view\n        onlyAuthorizedCaller\n        returns (bool set)\n    {\n        return _isProposalSet(_proposalID);\n    }\n\n    // check wether a voter as already voted for a specific proposal\n    function hasVotedMembershipFeeAmendmentProposal(\n        address _caller,\n        uint256 _proposalID\n    ) external view onlyAuthorizedCaller returns (bool _hasVoted) {\n        return _hasVotedProposal(_caller, _proposalID);\n    }\n\n    // fetch the current vote count for a membership fee amendment proposal\n    function getVoteCountMembershipFeeAmendmentProposal(\n        uint256 _proposalID,\n        bool _side\n    ) external view onlyAuthorizedCaller returns (uint256 count) {\n        return _getVoteCountMembershipFeeAmendmentProposal(_proposalID, _side);\n    }\n\n    // fetch the current membership fee\n    function getCurrentMembershipFee()\n        external\n        view\n        onlyAuthorizedCaller\n        returns (uint256 currentInsuranceCoverage)\n    {\n        return currentMembershipfee;\n    }\n\n    // fetch the membership proposal current proposal ID\n    function getMembershipFeeAmendmentProposalCurrentProposalID()\n        external\n        view\n        onlyAuthorizedCaller\n        returns (uint256 currentProposalID)\n    {\n        return _getMembershipFeeAmendmentProposalCurrentProposalID();\n    }\n\n    // check weather a proposal has reached consensus\n    function hasMembershipFeeAmendmentProposalReachedConsensus(\n        uint256 _proposalID,\n        bool _side,\n        uint256 _consensusTreshold\n    ) external view onlyAuthorizedCaller returns (bool) {\n        return _hasReachedConsensus(_proposalID, _side, _consensusTreshold);\n    }\n\n    // fetch a proposal createdAt attribute referencing the block number\n    function getProposalCreatedAt(uint256 _proposalID)\n        external\n        view\n        returns (uint256 createdAt)\n    {\n        return _getProposalCreatedAt(_proposalID);\n    }\n\n    function _activateMembershipFeeAmendmentProposal(uint256 _proposalID)\n        internal\n    {\n        Proposal memory _proposal = proposals[_proposalID];\n        currentMembershipfee = _proposal.proposedValue;\n    }\n\n    function _getVoteCountMembershipFeeAmendmentProposal(\n        uint256 _proposalID,\n        bool _side\n    ) internal view returns (uint256 count) {\n        return _getVoteCount(_proposalID, _side);\n    }\n\n    function _getMembershipFeeAmendmentProposalCurrentProposalID()\n        internal\n        view\n        returns (uint256 _currentProposalID)\n    {\n        return currentProposalID;\n    }\n}\n",
  "sourcePath": "/Users/devonmartens/udacity/Flight-Survey-DOA/contracts/amendmentProposals/MembershipFeeAmendmentProposal/MembershipFeeAmendmentProposal.sol",
  "compiler": {
    "name": "solc",
    "version": "0.8.0+commit.c7dfd78e.Emscripten.clang"
  },
  "schemaVersion": "3.4.3",
  "updatedAt": "2021-10-21T15:57:37.263Z",
  "networkType": "ethereum",
  "devdoc": {
    "kind": "dev",
    "methods": {},
    "version": 1
  },
  "userdoc": {
    "kind": "user",
    "methods": {
      "authorizeCaller(address)": {
        "notice": "caller authorization "
      }
    },
    "version": 1
  }
}