{
  "contractName": "OracleProviderRole",
  "abi": [
    {
      "inputs": [
        {
          "internalType": "address",
          "name": "_appContractAddress",
          "type": "address"
        },
        {
          "internalType": "address",
          "name": "_oracleContractAddress",
          "type": "address"
        }
      ],
      "stateMutability": "nonpayable",
      "type": "constructor"
    },
    {
      "inputs": [],
      "name": "destructContract",
      "outputs": [],
      "stateMutability": "nonpayable",
      "type": "function"
    },
    {
      "inputs": [],
      "name": "isOwner",
      "outputs": [
        {
          "internalType": "bool",
          "name": "_isOwner",
          "type": "bool"
        }
      ],
      "stateMutability": "view",
      "type": "function",
      "constant": true
    },
    {
      "inputs": [
        {
          "internalType": "address",
          "name": "_newOwner",
          "type": "address"
        }
      ],
      "name": "transferOwnership",
      "outputs": [],
      "stateMutability": "nonpayable",
      "type": "function"
    },
    {
      "inputs": [
        {
          "internalType": "address",
          "name": "_caller",
          "type": "address"
        }
      ],
      "name": "authorizeCaller",
      "outputs": [],
      "stateMutability": "nonpayable",
      "type": "function"
    },
    {
      "inputs": [
        {
          "internalType": "address",
          "name": "_caller",
          "type": "address"
        }
      ],
      "name": "unauthorizeCaller",
      "outputs": [],
      "stateMutability": "nonpayable",
      "type": "function"
    },
    {
      "inputs": [
        {
          "internalType": "address",
          "name": "_caller",
          "type": "address"
        }
      ],
      "name": "isRegisteredOracleProvider",
      "outputs": [
        {
          "internalType": "bool",
          "name": "",
          "type": "bool"
        }
      ],
      "stateMutability": "view",
      "type": "function",
      "constant": true
    },
    {
      "inputs": [
        {
          "internalType": "address",
          "name": "_caller",
          "type": "address"
        }
      ],
      "name": "isActivatedOracleProvider",
      "outputs": [
        {
          "internalType": "bool",
          "name": "",
          "type": "bool"
        }
      ],
      "stateMutability": "view",
      "type": "function",
      "constant": true
    },
    {
      "inputs": [
        {
          "internalType": "address",
          "name": "_account",
          "type": "address"
        },
        {
          "internalType": "address",
          "name": "_caller",
          "type": "address"
        }
      ],
      "name": "hasVotedOracleProviderMembership",
      "outputs": [
        {
          "internalType": "bool",
          "name": "",
          "type": "bool"
        }
      ],
      "stateMutability": "view",
      "type": "function",
      "constant": true
    },
    {
      "inputs": [
        {
          "internalType": "bool",
          "name": "_side",
          "type": "bool"
        },
        {
          "internalType": "address",
          "name": "_caller",
          "type": "address"
        },
        {
          "internalType": "uint256",
          "name": "consensusTreshold",
          "type": "uint256"
        }
      ],
      "name": "hasReachedConsensusOracleProviderMembership",
      "outputs": [
        {
          "internalType": "bool",
          "name": "",
          "type": "bool"
        }
      ],
      "stateMutability": "view",
      "type": "function",
      "constant": true
    },
    {
      "inputs": [
        {
          "internalType": "address",
          "name": "account",
          "type": "address"
        }
      ],
      "name": "getOracleIndexes",
      "outputs": [
        {
          "internalType": "uint256",
          "name": "index1",
          "type": "uint256"
        },
        {
          "internalType": "uint256",
          "name": "index2",
          "type": "uint256"
        },
        {
          "internalType": "uint256",
          "name": "index3",
          "type": "uint256"
        }
      ],
      "stateMutability": "view",
      "type": "function",
      "constant": true
    },
    {
      "inputs": [
        {
          "internalType": "bool",
          "name": "_side",
          "type": "bool"
        },
        {
          "internalType": "address",
          "name": "_caller",
          "type": "address"
        }
      ],
      "name": "getOracleProviderMembershipCurrentMembershipVotes",
      "outputs": [
        {
          "internalType": "uint256",
          "name": "",
          "type": "uint256"
        }
      ],
      "stateMutability": "view",
      "type": "function",
      "constant": true
    },
    {
      "inputs": [],
      "name": "getRegisteredOracleProvidersCount",
      "outputs": [
        {
          "internalType": "uint256",
          "name": "count",
          "type": "uint256"
        }
      ],
      "stateMutability": "view",
      "type": "function",
      "constant": true
    },
    {
      "inputs": [],
      "name": "getActivatedOracleProvidersCount",
      "outputs": [
        {
          "internalType": "uint256",
          "name": "count",
          "type": "uint256"
        }
      ],
      "stateMutability": "view",
      "type": "function",
      "constant": true
    },
    {
      "inputs": [
        {
          "internalType": "address",
          "name": "_caller",
          "type": "address"
        }
      ],
      "name": "addOracleProvider",
      "outputs": [],
      "stateMutability": "nonpayable",
      "type": "function"
    },
    {
      "inputs": [
        {
          "internalType": "address",
          "name": "_account",
          "type": "address"
        }
      ],
      "name": "renounceOracleProvider",
      "outputs": [],
      "stateMutability": "nonpayable",
      "type": "function"
    },
    {
      "inputs": [
        {
          "internalType": "address",
          "name": "_caller",
          "type": "address"
        },
        {
          "internalType": "address",
          "name": "_account",
          "type": "address"
        },
        {
          "internalType": "uint256",
          "name": "_voteWeight",
          "type": "uint256"
        }
      ],
      "name": "voteOracleProviderMembership",
      "outputs": [],
      "stateMutability": "nonpayable",
      "type": "function"
    },
    {
      "inputs": [
        {
          "internalType": "address",
          "name": "_account",
          "type": "address"
        }
      ],
      "name": "activateOracleProvider",
      "outputs": [],
      "stateMutability": "nonpayable",
      "type": "function"
    },
    {
      "inputs": [
        {
          "internalType": "address",
          "name": "_caller",
          "type": "address"
        }
      ],
      "name": "getOracleProviderIndexes",
      "outputs": [
        {
          "internalType": "uint256[3]",
          "name": "",
          "type": "uint256[3]"
        }
      ],
      "stateMutability": "view",
      "type": "function",
      "constant": true
    }
  ],
  "bytecode": "0x608060405234801561001057600080fd5b50604051610fad380380610fad83398101604081905261002f9161009b565b600080546001600160a01b031916331781556001600160a01b039283168152600160208190526040808320805460ff199081168417909155939094168252929020805490911690911790556100cd565b80516001600160a01b038116811461009657600080fd5b919050565b600080604083850312156100ad578182fd5b6100b68361007f565b91506100c46020840161007f565b90509250929050565b610ed1806100dc6000396000f3fe608060405234801561001057600080fd5b50600436106101155760003560e01c80638f32d59b116100a2578063c29857a611610071578063c29857a614610224578063c493d4eb14610237578063d3ad531314610257578063f0a587081461025f578063f2fde38b1461027257610115565b80638f32d59b146101ee57806393d4d05c146101f65780639499e01814610209578063a1edd0461461021157610115565b8063435bb89a116100e9578063435bb89a1461017e5780634ac8c5ae146101a057806356c589de146101b35780636ba155b1146101bb578063775cbd8d146101ce57610115565b80627271c91461011a5780632c388d5d14610143578063316b047d146101585780633a6de7ba1461016b575b600080fd5b61012d610128366004610cda565b610285565b60405161013a9190610d12565b60405180910390f35b610156610151366004610c53565b6102d2565b005b610156610166366004610c53565b610322565b610156610179366004610c53565b61035a565b61019161018c366004610c53565b610392565b60405161013a93929190610e05565b6101566101ae366004610c53565b61044d565b61012d61049a565b6101566101c9366004610c9f565b6104d6565b6101e16101dc366004610c53565b610519565b60405161013a9190610d4c565b6101e1610559565b610156610204366004610c53565b61056a565b6101566105a2565b6101e161021f366004610c53565b6105da565b6101e1610232366004610c6d565b610612565b61024a610245366004610c53565b61064b565b60405161013a9190610d1b565b61012d6106cc565b6101e161026d366004610cf5565b610703565b610156610280366004610c53565b610749565b3360009081526001602052604081205460ff166102bd5760405162461bcd60e51b81526004016102b490610da0565b60405180910390fd5b6102c960078385610795565b90505b92915050565b6000546001600160a01b03163314806102fa57503360009081526001602052604090205460ff165b6103165760405162461bcd60e51b81526004016102b490610d57565b61031f816107bf565b50565b3360009081526001602052604090205460ff166103515760405162461bcd60e51b81526004016102b490610da0565b61031f816107e6565b3360009081526001602052604090205460ff166103895760405162461bcd60e51b81526004016102b490610da0565b61031f816107f1565b336000908152600160205260408120548190819060ff166103c55760405162461bcd60e51b81526004016102b490610da0565b6001600160a01b038416600090815260096020526040808220815160608101928390529160039082845b8154815260200190600101908083116103ef57505050505090508060006003811061042a57634e487b7160e01b600052603260045260246000fd5b602002015181600160200201518260026020020151935093509350509193909250565b6000546001600160a01b031633148061047557503360009081526001602052604090205460ff165b6104915760405162461bcd60e51b81526004016102b490610d57565b61031f816107fc565b3360009081526001602052604081205460ff166104c95760405162461bcd60e51b81526004016102b490610da0565b6104d161081d565b905090565b3360009081526001602052604090205460ff166105055760405162461bcd60e51b81526004016102b490610da0565b61051460078460018585610829565b505050565b3360009081526001602052604081205460ff166105485760405162461bcd60e51b81526004016102b490610da0565b6105518261089f565b90505b919050565b6000546001600160a01b0316331490565b3360009081526001602052604090205460ff166105995760405162461bcd60e51b81526004016102b490610da0565b61031f816108ac565b6000546001600160a01b031633146105cc5760405162461bcd60e51b81526004016102b490610dd7565b6000546001600160a01b0316ff5b3360009081526001602052604081205460ff166106095760405162461bcd60e51b81526004016102b490610da0565b610551826108c0565b3360009081526001602052604081205460ff166106415760405162461bcd60e51b81526004016102b490610da0565b6102c983836108cd565b610653610bbb565b3360009081526001602052604090205460ff166106825760405162461bcd60e51b81526004016102b490610da0565b6001600160a01b03821660009081526009602052604090819020815160608101928390529160039082845b8154815260200190600101908083116106ad5750505050509050919050565b3360009081526001602052604081205460ff166106fb5760405162461bcd60e51b81526004016102b490610da0565b6104d16108db565b3360009081526001602052604081205460ff166107325760405162461bcd60e51b81526004016102b490610da0565b61073f60078585856108e7565b90505b9392505050565b6000546001600160a01b031633146107735760405162461bcd60e51b81526004016102b490610dd7565b600080546001600160a01b0319166001600160a01b0392909216919091179055565b6001600160a01b039190911660009081526020928352604080822092151582529190925290205490565b6001600160a01b03166000908152600160208190526040909120805460ff19169091179055565b61031f600382610925565b61031f600382610965565b6001600160a01b03166000908152600160205260409020805460ff19169055565b60006104d16003610995565b6001600160a01b03821660009081526020868152604080832086151584529091528120805483929061085c908490610e1b565b9091555050506001600160a01b03908116600090815260019490940160209081526040808620949092168552929092529120805460ff1916911515919091179055565b600061055160038361099c565b6108b76003826109cf565b61031f81610a0f565b6000610551600383610a40565b60006102c960078385610a69565b60006104d16003610aab565b6001600160a01b038216600090815260208581526040808320861515845290915281205482116109195750600161091d565b5060005b949350505050565b6001600160a01b0381166000908152602083905260409020805460ff19166001908117909155600283015461095991610ab2565b82600201819055505050565b6001600160a01b0381166000908152602083905260409020805460ff191690556002820154610959906001610abe565b6002015490565b6001600160a01b038116600090815260018301602052604081205460ff16156109c7575060016102cc565b5060006102cc565b6001600160a01b038116600090815260018381016020526040909120805460ff1916821790556003830154610a0391610ab2565b82600301819055505050565b6000610a19610aca565b6001600160a01b038316600090815260096020526040902090915061051490826003610bd9565b6001600160a01b03811660009081526020839052604081205460ff16156109c7575060016102cc565b6001600160a01b038082166000908152600185016020908152604080832093861683529290529081205460ff1615610aa357506001610742565b506000610742565b6003015490565b60006102c98284610e1b565b60006102c98284610e33565b610ad2610bbb565b6000806000610ae16005610b57565b9250610aed6005610b57565b91505b82821415610b0957610b026005610b57565b9150610af0565b610b136005610b57565b90505b81811480610b2357508281145b15610b3957610b326005610b57565b9050610b16565b60408051606081018252938452602084019290925290820152905090565b6000606460025410610b695760006002555b6002805483916000610b7a83610e4a565b90915550610b889042610e1b565b604051602001610b989190610d12565b6040516020818303038152906040528051906020012060001c6105519190610e65565b60405180606001604052806003906020820280368337509192915050565b8260038101928215610c07579160200282015b82811115610c07578251825591602001919060010190610bec565b50610c13929150610c17565b5090565b5b80821115610c135760008155600101610c18565b80356001600160a01b038116811461055457600080fd5b8035801515811461055457600080fd5b600060208284031215610c64578081fd5b6102c982610c2c565b60008060408385031215610c7f578081fd5b610c8883610c2c565b9150610c9660208401610c2c565b90509250929050565b600080600060608486031215610cb3578081fd5b610cbc84610c2c565b9250610cca60208501610c2c565b9150604084013590509250925092565b60008060408385031215610cec578182fd5b610c8883610c43565b600080600060608486031215610d09578283fd5b610cbc84610c43565b90815260200190565b60608101818360005b6003811015610d43578151835260209283019290910190600101610d24565b50505092915050565b901515815260200190565b60208082526029908201527f63616c6c6572206d757374206265206f776e6572206f7220617574686f72697a60408201526832b21031b0b63632b960b91b606082015260800190565b60208082526019908201527f63616c6c6572206d75737420626520617574686f72697a656400000000000000604082015260600190565b60208082526014908201527331b0b63632b91036bab9ba1031329037bbb732b960611b604082015260600190565b9283526020830191909152604082015260600190565b60008219821115610e2e57610e2e610e85565b500190565b600082821015610e4557610e45610e85565b500390565b6000600019821415610e5e57610e5e610e85565b5060010190565b600082610e8057634e487b7160e01b81526012600452602481fd5b500690565b634e487b7160e01b600052601160045260246000fdfea2646970667358221220f1a6e16e8f4670f1f0c142ffa8e5f5c0047c8ce41c727a1004eec8a8b67a365464736f6c63430008000033",
  "immutableReferences": {},
  "source": "// SPDX-License-Identifier: UNLICENSED\npragma solidity ^0.8.00;\n\nimport \"../libraries/Rolable.sol\";\nimport \"../libraries/Votable.sol\";\nimport \"../Ownable/Ownable.sol\";\nimport \"../CallerAuditable/CallerAuditable.sol\";\nimport \"../Random/Random.sol\";\n\ncontract OracleProviderRole is Ownable, CallerAuditable, Random {\n    using Rolable for Rolable.Role;\n    Rolable.Role oracleProviders;\n    using Votable for Votable.MembershipVote;\n    Votable.MembershipVote oracleProvidersVote;\n    mapping(address => uint256[3]) oracleProvidersIndexes;\n\n    modifier onlyOwnerOrAuthorizedCaller() {\n        require(\n            msg.sender == owner || authorizedCallers[msg.sender],\n            \"caller must be owner or authorized caller\"\n        );\n        _;\n    }\n\n    // constructor setting owner and initial authorized caller address aka appAddress\n    constructor(address _appContractAddress, address _oracleContractAddress)\n        Ownable()\n    {\n        authorizedCallers[_appContractAddress] = true;\n        authorizedCallers[_oracleContractAddress] = true;\n    }\n\n    /** caller authorization */\n\n    // authorize a new caller to call the contract\n    function authorizeCaller(address _caller)\n        external\n        onlyOwnerOrAuthorizedCaller\n    {\n        _authorizeCaller(_caller);\n    }\n\n    // remove an existing caller rights to call the contract\n    function unauthorizeCaller(address _caller)\n        external\n        onlyOwnerOrAuthorizedCaller\n    {\n        _unauthorizeCaller(_caller);\n    }\n\n    /** oracle providers management (CHECK + ADD + REMOVE + VOTE) */\n\n    // check if an oracle provider is registered\n    function isRegisteredOracleProvider(address _caller)\n        external\n        view\n        onlyAuthorizedCaller\n        returns (bool)\n    {\n        return _isRegisteredOracleProvider(_caller);\n    }\n\n    // check if an oracle provider is activated\n    function isActivatedOracleProvider(address _caller)\n        external\n        view\n        onlyAuthorizedCaller\n        returns (bool)\n    {\n        return _isActivatedOracleProvider(_caller);\n    }\n\n    // check if a given caller has voted for the membership of an other address\n    function hasVotedOracleProviderMembership(address _account, address _caller)\n        external\n        view\n        onlyAuthorizedCaller\n        returns (bool)\n    {\n        return _hasVotedOracleProviderMembership(_account, _caller);\n    }\n\n    // check if an address currently voted for oracle provider membership has reached consensus among the community\n    function hasReachedConsensusOracleProviderMembership(\n        bool _side,\n        address _caller,\n        uint256 consensusTreshold\n    ) external view onlyAuthorizedCaller returns (bool) {\n        return\n            oracleProvidersVote.hasReachedConsensusMembership(\n                _side,\n                _caller,\n                consensusTreshold\n            );\n    }\n\n    // fetch the oracle provider indexes\n    function getOracleIndexes(address account)\n        external\n        view\n        onlyAuthorizedCaller\n        returns (\n            uint256 index1,\n            uint256 index2,\n            uint256 index3\n        )\n    {\n        uint256[3] memory _oracleProviderIndexes = oracleProvidersIndexes[\n            account\n        ];\n        return (\n            _oracleProviderIndexes[0],\n            _oracleProviderIndexes[1],\n            _oracleProviderIndexes[2]\n        );\n    }\n\n    // get the current votes number for a given account\n    function getOracleProviderMembershipCurrentMembershipVotes(\n        bool _side,\n        address _caller\n    ) external view onlyAuthorizedCaller returns (uint256) {\n        return oracleProvidersVote.getCurrentMembershipVotes(_caller, _side);\n    }\n\n    // fetch current registered oracle provider count\n    function getRegisteredOracleProvidersCount()\n        external\n        view\n        onlyAuthorizedCaller\n        returns (uint256 count)\n    {\n        return _getRegisteredOracleProvidersCount();\n    }\n\n    // fetch current activated oracle provider count\n    function getActivatedOracleProvidersCount()\n        external\n        view\n        onlyAuthorizedCaller\n        returns (uint256 count)\n    {\n        return _getActivatedOracleProvidersCount();\n    }\n\n    // register an oracle provider is registered\n    function addOracleProvider(address _caller) external onlyAuthorizedCaller {\n        _addOracleProvider(_caller);\n    }\n\n    // remove an existing oracle provider\n    function renounceOracleProvider(address _account)\n        external\n        onlyAuthorizedCaller\n    {\n        _renounceOracleProvider(_account);\n    }\n\n    // vote for an oracle provider activation and membership\n    function voteOracleProviderMembership(\n        address _caller,\n        address _account,\n        uint256 _voteWeight\n    ) external onlyAuthorizedCaller {\n        oracleProvidersVote.voteMembership(\n            _caller,\n            true,\n            _account,\n            _voteWeight\n        );\n    }\n\n    // activate an oracle provider\n    function activateOracleProvider(address _account)\n        external\n        onlyAuthorizedCaller\n    {\n        _activateOracleProvider(_account);\n    }\n\n    // fetch oracle providers indexes\n    function getOracleProviderIndexes(address _caller)\n        external\n        view\n        onlyAuthorizedCaller\n        returns (uint256[3] memory)\n    {\n        return oracleProvidersIndexes[_caller];\n    }\n\n    function _isRegisteredOracleProvider(address _caller)\n        internal\n        view\n        returns (bool)\n    {\n        return oracleProviders.isRegistered(_caller);\n    }\n\n    function _isActivatedOracleProvider(address _caller)\n        internal\n        view\n        returns (bool)\n    {\n        return oracleProviders.isActivated(_caller);\n    }\n\n    function _hasVotedOracleProviderMembership(\n        address _account,\n        address _caller\n    ) internal view returns (bool) {\n        return oracleProvidersVote.hasVotedMembership(_caller, _account);\n    }\n\n    function _getRegisteredOracleProvidersCount()\n        internal\n        view\n        returns (uint256 count)\n    {\n        return oracleProviders.getRegisteredAccountsCount();\n    }\n\n    function _getActivatedOracleProvidersCount()\n        internal\n        view\n        returns (uint256 count)\n    {\n        return oracleProviders.getActiveAccountsCount();\n    }\n\n    function _addOracleProvider(address _account) internal {\n        oracleProviders.add(_account);\n    }\n\n    function _renounceOracleProvider(address _account) internal {\n        oracleProviders.remove(_account);\n    }\n\n    function _setOracleIndexes(address _account) internal {\n        uint256[3] memory _randomIndexes = _generateRandomIndexes();\n        oracleProvidersIndexes[_account] = _randomIndexes;\n    }\n\n    function _activateOracleProvider(address _account) internal {\n        oracleProviders.activate(_account);\n        _setOracleIndexes(_account);\n    }\n}\n",
  "sourcePath": "/Users/devonmartens/udacity/Flight-Survey-DOA/contracts/roles/OracleProviderRole.sol",
  "compiler": {
    "name": "solc",
    "version": "0.8.0+commit.c7dfd78e.Emscripten.clang"
  },
  "schemaVersion": "3.4.3",
  "updatedAt": "2021-10-21T15:57:37.254Z",
  "networkType": "ethereum",
  "devdoc": {
    "kind": "dev",
    "methods": {},
    "version": 1
  },
  "userdoc": {
    "kind": "user",
    "methods": {
      "authorizeCaller(address)": {
        "notice": "caller authorization "
      },
      "isRegisteredOracleProvider(address)": {
        "notice": "oracle providers management (CHECK + ADD + REMOVE + VOTE) "
      }
    },
    "version": 1
  }
}