{
  "contractName": "Ownable",
  "abi": [
    {
      "inputs": [],
      "stateMutability": "nonpayable",
      "type": "constructor"
    },
    {
      "inputs": [
        {
          "internalType": "address",
          "name": "_newOwner",
          "type": "address"
        }
      ],
      "name": "transferOwnership",
      "outputs": [],
      "stateMutability": "nonpayable",
      "type": "function"
    },
    {
      "inputs": [],
      "name": "destructContract",
      "outputs": [],
      "stateMutability": "nonpayable",
      "type": "function"
    },
    {
      "inputs": [],
      "name": "isOwner",
      "outputs": [
        {
          "internalType": "bool",
          "name": "_isOwner",
          "type": "bool"
        }
      ],
      "stateMutability": "view",
      "type": "function"
    }
  ],
  "bytecode": "0x608060405234801561001057600080fd5b50600080546001600160a01b031916331790556101bc806100326000396000f3fe608060405234801561001057600080fd5b50600436106100415760003560e01c80638f32d59b146100465780639499e01814610064578063f2fde38b1461006e575b600080fd5b61004e610081565b60405161005b919061014d565b60405180910390f35b61006c610092565b005b61006c61007c36600461011f565b6100d3565b6000546001600160a01b0316331490565b6000546001600160a01b031633146100c55760405162461bcd60e51b81526004016100bc90610158565b60405180910390fd5b6000546001600160a01b0316ff5b6000546001600160a01b031633146100fd5760405162461bcd60e51b81526004016100bc90610158565b600080546001600160a01b0319166001600160a01b0392909216919091179055565b600060208284031215610130578081fd5b81356001600160a01b0381168114610146578182fd5b9392505050565b901515815260200190565b60208082526014908201527331b0b63632b91036bab9ba1031329037bbb732b960611b60408201526060019056fea26469706673582212202e7b63a00ac4d05cfeab7ac549217e6451cd5956cac3078ea0695be12797711d64736f6c63430008000033",
  "immutableReferences": {},
  "source": "// SPDX-License-Identifier: UNLICENSED\npragma solidity ^0.8.00;\n\ncontract Ownable {\n    address owner;\n\n    constructor() {\n        owner = msg.sender;\n    }\n\n    modifier onlyOwner() {\n        require(msg.sender == owner, \"caller must be owner\");\n        _;\n    }\n\n    function transferOwnership(address _newOwner) external onlyOwner {\n        owner = _newOwner;\n    }\n\n    function destructContract() external onlyOwner {\n        selfdestruct(payable(owner));\n    }\n\n    function isOwner() external view returns(bool _isOwner){\n        return msg.sender == owner;\n    }\n}\n",
  "sourcePath": "/Users/devonmartens/udacity/Flight-Survey-DOA/contracts/Ownable/Ownable.sol",
  "compiler": {
    "name": "solc",
    "version": "0.8.0+commit.c7dfd78e.Emscripten.clang"
  },
  "schemaVersion": "3.4.3",
  "updatedAt": "2021-10-21T15:50:51.452Z",
  "devdoc": {
    "kind": "dev",
    "methods": {},
    "version": 1
  },
  "userdoc": {
    "kind": "user",
    "methods": {},
    "version": 1
  }
}